{
  "address": "0x5FbDB2315678afecb367f032d93F642f64180aa3",
  "abi": [
    {
      "inputs": [
        {
          "internalType": "string",
          "name": "_name",
          "type": "string"
        },
        {
          "internalType": "string",
          "name": "_tokenName",
          "type": "string"
        },
        {
          "internalType": "string",
          "name": "_agenda",
          "type": "string"
        },
        {
          "internalType": "string[]",
          "name": "_tags",
          "type": "string[]"
        },
        {
          "internalType": "address",
          "name": "_ownerAddress",
          "type": "address"
        }
      ],
      "name": "createCharity",
      "outputs": [],
      "stateMutability": "nonpayable",
      "type": "function"
    },
    {
      "inputs": [
        {
          "internalType": "string",
          "name": "_tokenName",
          "type": "string"
        }
      ],
      "name": "donate",
      "outputs": [],
      "stateMutability": "payable",
      "type": "function"
    },
    {
      "inputs": [
        {
          "internalType": "string",
          "name": "_tokenName",
          "type": "string"
        }
      ],
      "name": "getCharityByTokenName",
      "outputs": [
        {
          "components": [
            {
              "internalType": "uint8",
              "name": "credibility",
              "type": "uint8"
            },
            {
              "internalType": "uint32",
              "name": "charityId",
              "type": "uint32"
            },
            {
              "internalType": "uint256",
              "name": "amountRaised",
              "type": "uint256"
            },
            {
              "internalType": "string",
              "name": "name",
              "type": "string"
            },
            {
              "internalType": "string[]",
              "name": "tags",
              "type": "string[]"
            },
            {
              "internalType": "string",
              "name": "tokenName",
              "type": "string"
            },
            {
              "internalType": "string",
              "name": "agenda",
              "type": "string"
            },
            {
              "internalType": "address",
              "name": "ownerAddress",
              "type": "address"
            }
          ],
          "internalType": "struct CharityHosting.Charity",
          "name": "",
          "type": "tuple"
        }
      ],
      "stateMutability": "view",
      "type": "function"
    },
    {
      "inputs": [],
      "name": "getCharityList",
      "outputs": [
        {
          "components": [
            {
              "internalType": "uint8",
              "name": "credibility",
              "type": "uint8"
            },
            {
              "internalType": "uint32",
              "name": "charityId",
              "type": "uint32"
            },
            {
              "internalType": "uint256",
              "name": "amountRaised",
              "type": "uint256"
            },
            {
              "internalType": "string",
              "name": "name",
              "type": "string"
            },
            {
              "internalType": "string[]",
              "name": "tags",
              "type": "string[]"
            },
            {
              "internalType": "string",
              "name": "tokenName",
              "type": "string"
            },
            {
              "internalType": "string",
              "name": "agenda",
              "type": "string"
            },
            {
              "internalType": "address",
              "name": "ownerAddress",
              "type": "address"
            }
          ],
          "internalType": "struct CharityHosting.Charity[]",
          "name": "",
          "type": "tuple[]"
        }
      ],
      "stateMutability": "view",
      "type": "function"
    },
    {
      "inputs": [
        {
          "internalType": "string",
          "name": "_tokenName",
          "type": "string"
        }
      ],
      "name": "getDonorsArrayByTokenName",
      "outputs": [
        {
          "components": [
            {
              "internalType": "uint8",
              "name": "vote",
              "type": "uint8"
            },
            {
              "internalType": "uint256",
              "name": "amountDonated",
              "type": "uint256"
            },
            {
              "internalType": "address",
              "name": "donorAddress",
              "type": "address"
            }
          ],
          "internalType": "struct CharityHosting.Donor[]",
          "name": "",
          "type": "tuple[]"
        }
      ],
      "stateMutability": "view",
      "type": "function"
    },
    {
      "inputs": [],
      "name": "getNumberOfCharitiesRegistered",
      "outputs": [
        {
          "internalType": "uint32",
          "name": "",
          "type": "uint32"
        }
      ],
      "stateMutability": "view",
      "type": "function"
    },
    {
      "inputs": [
        {
          "internalType": "string",
          "name": "_tokenName",
          "type": "string"
        },
        {
          "internalType": "uint8",
          "name": "_vote",
          "type": "uint8"
        }
      ],
      "name": "vouch",
      "outputs": [],
      "stateMutability": "nonpayable",
      "type": "function"
    }
  ],
  "transactionHash": "0xdf75d6d96ef063349ec428873000b2c7a0535aeea002f8e0c717e9ed53b94672",
  "args": [],
  "numDeployments": 1,
  "solcInputHash": "246ac75c6cc9e9491ac1c788644b5d46",
  "bytecode": "0x608060405260008060006101000a81548163ffffffff021916908363ffffffff16021790555034801561003157600080fd5b50612777806100416000396000f3fe6080604052600436106100705760003560e01c80639ad6b0f21161004e5780639ad6b0f214610106578063b5aebc801461012f578063e067f8e21461014b578063fb64b94d1461018857610070565b80630795bb03146100755780636ba4194a146100b25780636f10c52a146100dd575b600080fd5b34801561008157600080fd5b5061009c60048036038101906100979190611885565b6101b3565b6040516100a99190611b87565b60405180910390f35b3480156100be57600080fd5b506100c7610559565b6040516100d49190611d30565b60405180910390f35b3480156100e957600080fd5b5061010460048036038101906100ff9190611d7e565b6108f1565b005b34801561011257600080fd5b5061012d60048036038101906101289190611e60565b610ce6565b005b61014960048036038101906101449190611885565b611015565b005b34801561015757600080fd5b50610172600480360381019061016d9190611885565b611297565b60405161017f919061204d565b60405180910390f35b34801561019457600080fd5b5061019d6113c3565b6040516101aa919061207e565b60405180910390f35b6101bb611607565b6003600284846040516101cf9291906120d8565b908152602001604051809103902060009054906101000a900463ffffffff1663ffffffff1681548110610205576102046120f1565b5b9060005260206000209060070201604051806101000160405290816000820160009054906101000a900460ff1660ff1660ff1681526020016000820160019054906101000a900463ffffffff1663ffffffff1663ffffffff1681526020016001820154815260200160028201805461027c9061214f565b80601f01602080910402602001604051908101604052809291908181526020018280546102a89061214f565b80156102f55780601f106102ca576101008083540402835291602001916102f5565b820191906000526020600020905b8154815290600101906020018083116102d857829003601f168201915b5050505050815260200160038201805480602002602001604051908101604052809291908181526020016000905b828210156103cf5783829060005260206000200180546103429061214f565b80601f016020809104026020016040519081016040528092919081815260200182805461036e9061214f565b80156103bb5780601f10610390576101008083540402835291602001916103bb565b820191906000526020600020905b81548152906001019060200180831161039e57829003601f168201915b505050505081526020019060010190610323565b5050505081526020016004820180546103e79061214f565b80601f01602080910402602001604051908101604052809291908181526020018280546104139061214f565b80156104605780601f1061043557610100808354040283529160200191610460565b820191906000526020600020905b81548152906001019060200180831161044357829003601f168201915b505050505081526020016005820180546104799061214f565b80601f01602080910402602001604051908101604052809291908181526020018280546104a59061214f565b80156104f25780601f106104c7576101008083540402835291602001916104f2565b820191906000526020600020905b8154815290600101906020018083116104d557829003601f168201915b505050505081526020016006820160009054906101000a900473ffffffffffffffffffffffffffffffffffffffff1673ffffffffffffffffffffffffffffffffffffffff1673ffffffffffffffffffffffffffffffffffffffff1681525050905092915050565b606060006003805480602002602001604051908101604052809291908181526020016000905b828210156108e45783829060005260206000209060070201604051806101000160405290816000820160009054906101000a900460ff1660ff1660ff1681526020016000820160019054906101000a900463ffffffff1663ffffffff1663ffffffff168152602001600182015481526020016002820180546106009061214f565b80601f016020809104026020016040519081016040528092919081815260200182805461062c9061214f565b80156106795780601f1061064e57610100808354040283529160200191610679565b820191906000526020600020905b81548152906001019060200180831161065c57829003601f168201915b5050505050815260200160038201805480602002602001604051908101604052809291908181526020016000905b828210156107535783829060005260206000200180546106c69061214f565b80601f01602080910402602001604051908101604052809291908181526020018280546106f29061214f565b801561073f5780601f106107145761010080835404028352916020019161073f565b820191906000526020600020905b81548152906001019060200180831161072257829003601f168201915b5050505050815260200190600101906106a7565b50505050815260200160048201805461076b9061214f565b80601f01602080910402602001604051908101604052809291908181526020018280546107979061214f565b80156107e45780601f106107b9576101008083540402835291602001916107e4565b820191906000526020600020905b8154815290600101906020018083116107c757829003601f168201915b505050505081526020016005820180546107fd9061214f565b80601f01602080910402602001604051908101604052809291908181526020018280546108299061214f565b80156108765780601f1061084b57610100808354040283529160200191610876565b820191906000526020600020905b81548152906001019060200180831161085957829003601f168201915b505050505081526020016006820160009054906101000a900473ffffffffffffffffffffffffffffffffffffffff1673ffffffffffffffffffffffffffffffffffffffff1673ffffffffffffffffffffffffffffffffffffffff16815250508152602001906001019061057f565b5050505090508091505090565b6000808060009050600060016000600289896040516109119291906120d8565b908152602001604051809103902060009054906101000a900463ffffffff1663ffffffff1663ffffffff168152602001908152602001600020805480602002602001604051908101604052809291908181526020016000905b82821015610a1957838290600052602060002090600302016040518060600160405290816000820160009054906101000a900460ff1660ff1660ff168152602001600182015481526020016002820160009054906101000a900473ffffffffffffffffffffffffffffffffffffffff1673ffffffffffffffffffffffffffffffffffffffff1673ffffffffffffffffffffffffffffffffffffffff16815250508152602001906001019061096a565b50505050905060018151610a2d91906121b0565b92505b60008310610b6257808381518110610a4b57610a4a6120f1565b5b60200260200101516040015173ffffffffffffffffffffffffffffffffffffffff163373ffffffffffffffffffffffffffffffffffffffff161415610af7576000818481518110610a9f57610a9e6120f1565b5b60200260200101516000015160ff1614610aee576040517f08c379a0000000000000000000000000000000000000000000000000000000008152600401610ae590612241565b60405180910390fd5b60019350610b62565b808381518110610b0a57610b096120f1565b5b602002602001015160200151818481518110610b2957610b286120f1565b5b60200260200101516000015160ff16610b429190612261565b82610b4d91906122bb565b91508280610b5a90612311565b935050610a30565b83610ba2576040517f08c379a0000000000000000000000000000000000000000000000000000000008152600401610b9990612387565b60405180910390fd5b846001600060028a8a604051610bb99291906120d8565b908152602001604051809103902060009054906101000a900463ffffffff1663ffffffff1663ffffffff1681526020019081526020016000208481548110610c0457610c036120f1565b5b906000526020600020906003020160000160006101000a81548160ff021916908360ff160217905550610c388787856113dc565b82610c4391906122bb565b91506000600360028989604051610c5b9291906120d8565b908152602001604051809103902060009054906101000a900463ffffffff1663ffffffff1681548110610c9157610c906120f1565b5b906000526020600020906007020160010154905060008184610cb391906123d6565b6001610cbf9190612407565b9050603281610cce919061243e565b9050610cdb818a8a61158e565b505050505050505050565b610cee611607565b60008081819054906101000a900463ffffffff1680929190610d0f90612479565b91906101000a81548163ffffffff021916908363ffffffff160217905550816020019063ffffffff16908163ffffffff168152505089898080601f016020809104026020016040519081016040528093929190818152602001838380828437600081840152601f19601f82011690508083019250505050505050816060018190525087878080601f016020809104026020016040519081016040528093929190818152602001838380828437600081840152601f19601f820116905080830192505050505050508160a00181905250806020015160028989604051610df59291906120d8565b908152602001604051809103902060006101000a81548163ffffffff021916908363ffffffff16021790555085858080601f016020809104026020016040519081016040528093929190818152602001838380828437600081840152601f19601f820116905080830192505050505050508160c00181905250838390610e7b919061267a565b8160800181905250818160e0019073ffffffffffffffffffffffffffffffffffffffff16908173ffffffffffffffffffffffffffffffffffffffff16815250506032816000019060ff16908160ff1681525050600381908060018154018082558091505060019003906000526020600020906007020160009091909190915060008201518160000160006101000a81548160ff021916908360ff16021790555060208201518160000160016101000a81548163ffffffff021916908363ffffffff160217905550604082015181600101556060820151816002019080519060200190610f6892919061166b565b506080820151816003019080519060200190610f859291906116f1565b5060a0820151816004019080519060200190610fa292919061166b565b5060c0820151816005019080519060200190610fbf92919061166b565b5060e08201518160060160006101000a81548173ffffffffffffffffffffffffffffffffffffffff021916908373ffffffffffffffffffffffffffffffffffffffff160217905550505050505050505050505050565b61101d611751565b6000600284846040516110319291906120d8565b908152602001604051809103902060009054906101000a900463ffffffff16905033826040019073ffffffffffffffffffffffffffffffffffffffff16908173ffffffffffffffffffffffffffffffffffffffff168152505034826020018181525050600160008263ffffffff1663ffffffff16815260200190815260200160002082908060018154018082558091505060019003906000526020600020906003020160009091909190915060008201518160000160006101000a81548160ff021916908360ff1602179055506020820151816001015560408201518160020160006101000a81548173ffffffffffffffffffffffffffffffffffffffff021916908373ffffffffffffffffffffffffffffffffffffffff1602179055505050600060038263ffffffff168154811061116d5761116c6120f1565b5b906000526020600020906007020160060160009054906101000a900473ffffffffffffffffffffffffffffffffffffffff16905060008173ffffffffffffffffffffffffffffffffffffffff16346040516111c7906126c0565b60006040518083038185875af1925050503d8060008114611204576040519150601f19603f3d011682016040523d82523d6000602084013e611209565b606091505b505090508061124d576040517f08c379a000000000000000000000000000000000000000000000000000000000815260040161124490612721565b60405180910390fd5b3460038463ffffffff1681548110611268576112676120f1565b5b9060005260206000209060070201600101600082825461128891906122bb565b92505081905550505050505050565b606060016000600285856040516112af9291906120d8565b908152602001604051809103902060009054906101000a900463ffffffff1663ffffffff1663ffffffff168152602001908152602001600020805480602002602001604051908101604052809291908181526020016000905b828210156113b757838290600052602060002090600302016040518060600160405290816000820160009054906101000a900460ff1660ff1660ff168152602001600182015481526020016002820160009054906101000a900473ffffffffffffffffffffffffffffffffffffffff1673ffffffffffffffffffffffffffffffffffffffff1673ffffffffffffffffffffffffffffffffffffffff168152505081526020019060010190611308565b50505050905092915050565b60008060009054906101000a900463ffffffff16905090565b60008060016000600287876040516113f59291906120d8565b908152602001604051809103902060009054906101000a900463ffffffff1663ffffffff1663ffffffff168152602001908152602001600020805480602002602001604051908101604052809291908181526020016000905b828210156114fd57838290600052602060002090600302016040518060600160405290816000820160009054906101000a900460ff1660ff1660ff168152602001600182015481526020016002820160009054906101000a900473ffffffffffffffffffffffffffffffffffffffff1673ffffffffffffffffffffffffffffffffffffffff1673ffffffffffffffffffffffffffffffffffffffff16815250508152602001906001019061144e565b505050509050600080600090508491505b6000821061158157828281518110611529576115286120f1565b5b602002602001015160200151838381518110611548576115476120f1565b5b60200260200101516000015160ff166115619190612261565b8161156c91906122bb565b9050818061157990612311565b92505061150e565b8093505050509392505050565b826003600284846040516115a39291906120d8565b908152602001604051809103902060009054906101000a900463ffffffff1663ffffffff16815481106115d9576115d86120f1565b5b906000526020600020906007020160000160006101000a81548160ff021916908360ff160217905550505050565b604051806101000160405280600060ff168152602001600063ffffffff1681526020016000815260200160608152602001606081526020016060815260200160608152602001600073ffffffffffffffffffffffffffffffffffffffff1681525090565b8280546116779061214f565b90600052602060002090601f01602090048101928261169957600085556116e0565b82601f106116b257805160ff19168380011785556116e0565b828001600101855582156116e0579182015b828111156116df5782518255916020019190600101906116c4565b5b5090506116ed919061178b565b5090565b828054828255906000526020600020908101928215611740579160200282015b8281111561173f57825182908051906020019061172f92919061166b565b5091602001919060010190611711565b5b50905061174d91906117a8565b5090565b6040518060600160405280600060ff16815260200160008152602001600073ffffffffffffffffffffffffffffffffffffffff1681525090565b5b808211156117a457600081600090555060010161178c565b5090565b5b808211156117c857600081816117bf91906117cc565b506001016117a9565b5090565b5080546117d89061214f565b6000825580601f106117ea5750611809565b601f016020900490600052602060002090810190611808919061178b565b5b50565b6000604051905090565b600080fd5b600080fd5b600080fd5b600080fd5b600080fd5b60008083601f84011261184557611844611820565b5b8235905067ffffffffffffffff81111561186257611861611825565b5b60208301915083600182028301111561187e5761187d61182a565b5b9250929050565b6000806020838503121561189c5761189b611816565b5b600083013567ffffffffffffffff8111156118ba576118b961181b565b5b6118c68582860161182f565b92509250509250929050565b600060ff82169050919050565b6118e8816118d2565b82525050565b600063ffffffff82169050919050565b611907816118ee565b82525050565b6000819050919050565b6119208161190d565b82525050565b600081519050919050565b600082825260208201905092915050565b60005b83811015611960578082015181840152602081019050611945565b8381111561196f576000848401525b50505050565b6000601f19601f8301169050919050565b600061199182611926565b61199b8185611931565b93506119ab818560208601611942565b6119b481611975565b840191505092915050565b600081519050919050565b600082825260208201905092915050565b6000819050602082019050919050565b60006119f78383611986565b905092915050565b6000602082019050919050565b6000611a17826119bf565b611a2181856119ca565b935083602082028501611a33856119db565b8060005b85811015611a6f5784840389528151611a5085826119eb565b9450611a5b836119ff565b925060208a01995050600181019050611a37565b50829750879550505050505092915050565b600073ffffffffffffffffffffffffffffffffffffffff82169050919050565b6000611aac82611a81565b9050919050565b611abc81611aa1565b82525050565b600061010083016000830151611adb60008601826118df565b506020830151611aee60208601826118fe565b506040830151611b016040860182611917565b5060608301518482036060860152611b198282611986565b91505060808301518482036080860152611b338282611a0c565b91505060a083015184820360a0860152611b4d8282611986565b91505060c083015184820360c0860152611b678282611986565b91505060e0830151611b7c60e0860182611ab3565b508091505092915050565b60006020820190508181036000830152611ba18184611ac2565b905092915050565b600081519050919050565b600082825260208201905092915050565b6000819050602082019050919050565b600061010083016000830151611bee60008601826118df565b506020830151611c0160208601826118fe565b506040830151611c146040860182611917565b5060608301518482036060860152611c2c8282611986565b91505060808301518482036080860152611c468282611a0c565b91505060a083015184820360a0860152611c608282611986565b91505060c083015184820360c0860152611c7a8282611986565b91505060e0830151611c8f60e0860182611ab3565b508091505092915050565b6000611ca68383611bd5565b905092915050565b6000602082019050919050565b6000611cc682611ba9565b611cd08185611bb4565b935083602082028501611ce285611bc5565b8060005b85811015611d1e5784840389528151611cff8582611c9a565b9450611d0a83611cae565b925060208a01995050600181019050611ce6565b50829750879550505050505092915050565b60006020820190508181036000830152611d4a8184611cbb565b905092915050565b611d5b816118d2565b8114611d6657600080fd5b50565b600081359050611d7881611d52565b92915050565b600080600060408486031215611d9757611d96611816565b5b600084013567ffffffffffffffff811115611db557611db461181b565b5b611dc18682870161182f565b93509350506020611dd486828701611d69565b9150509250925092565b60008083601f840112611df457611df3611820565b5b8235905067ffffffffffffffff811115611e1157611e10611825565b5b602083019150836020820283011115611e2d57611e2c61182a565b5b9250929050565b611e3d81611aa1565b8114611e4857600080fd5b50565b600081359050611e5a81611e34565b92915050565b600080600080600080600080600060a08a8c031215611e8257611e81611816565b5b60008a013567ffffffffffffffff811115611ea057611e9f61181b565b5b611eac8c828d0161182f565b995099505060208a013567ffffffffffffffff811115611ecf57611ece61181b565b5b611edb8c828d0161182f565b975097505060408a013567ffffffffffffffff811115611efe57611efd61181b565b5b611f0a8c828d0161182f565b955095505060608a013567ffffffffffffffff811115611f2d57611f2c61181b565b5b611f398c828d01611dde565b93509350506080611f4c8c828d01611e4b565b9150509295985092959850929598565b600081519050919050565b600082825260208201905092915050565b6000819050602082019050919050565b606082016000820151611f9e60008501826118df565b506020820151611fb16020850182611917565b506040820151611fc46040850182611ab3565b50505050565b6000611fd68383611f88565b60608301905092915050565b6000602082019050919050565b6000611ffa82611f5c565b6120048185611f67565b935061200f83611f78565b8060005b838110156120405781516120278882611fca565b975061203283611fe2565b925050600181019050612013565b5085935050505092915050565b600060208201905081810360008301526120678184611fef565b905092915050565b612078816118ee565b82525050565b6000602082019050612093600083018461206f565b92915050565b600081905092915050565b82818337600083830152505050565b60006120bf8385612099565b93506120cc8385846120a4565b82840190509392505050565b60006120e58284866120b3565b91508190509392505050565b7f4e487b7100000000000000000000000000000000000000000000000000000000600052603260045260246000fd5b7f4e487b7100000000000000000000000000000000000000000000000000000000600052602260045260246000fd5b6000600282049050600182168061216757607f821691505b6020821081141561217b5761217a612120565b5b50919050565b7f4e487b7100000000000000000000000000000000000000000000000000000000600052601160045260246000fd5b60006121bb8261190d565b91506121c68361190d565b9250828210156121d9576121d8612181565b5b828203905092915050565b600082825260208201905092915050565b7f416c726561647920566f74656400000000000000000000000000000000000000600082015250565b600061222b600d836121e4565b9150612236826121f5565b602082019050919050565b6000602082019050818103600083015261225a8161221e565b9050919050565b600061226c8261190d565b91506122778361190d565b9250817fffffffffffffffffffffffffffffffffffffffffffffffffffffffffffffffff04831182151516156122b0576122af612181565b5b828202905092915050565b60006122c68261190d565b91506122d18361190d565b9250827fffffffffffffffffffffffffffffffffffffffffffffffffffffffffffffffff0382111561230657612305612181565b5b828201905092915050565b600061231c8261190d565b915060008214156123305761232f612181565b5b600182039050919050565b7f43616e6e6f7420566f7465000000000000000000000000000000000000000000600082015250565b6000612371600b836121e4565b915061237c8261233b565b602082019050919050565b600060208201905081810360008301526123a081612364565b9050919050565b7f4e487b7100000000000000000000000000000000000000000000000000000000600052601260045260246000fd5b60006123e18261190d565b91506123ec8361190d565b9250826123fc576123fb6123a7565b5b828204905092915050565b6000612412826118d2565b915061241d836118d2565b92508260ff0382111561243357612432612181565b5b828201905092915050565b6000612449826118d2565b9150612454836118d2565b92508160ff048311821515161561246e5761246d612181565b5b828202905092915050565b6000612484826118ee565b915063ffffffff82141561249b5761249a612181565b5b600182019050919050565b7f4e487b7100000000000000000000000000000000000000000000000000000000600052604160045260246000fd5b6124de82611975565b810181811067ffffffffffffffff821117156124fd576124fc6124a6565b5b80604052505050565b600061251061180c565b905061251c82826124d5565b919050565b600067ffffffffffffffff82111561253c5761253b6124a6565b5b602082029050602081019050919050565b600080fd5b600067ffffffffffffffff82111561256d5761256c6124a6565b5b61257682611975565b9050602081019050919050565b600061259661259184612552565b612506565b9050828152602081018484840111156125b2576125b161254d565b5b6125bd8482856120a4565b509392505050565b600082601f8301126125da576125d9611820565b5b81356125ea848260208601612583565b91505092915050565b600061260661260184612521565b612506565b905080838252602082019050602084028301858111156126295761262861182a565b5b835b8181101561267057803567ffffffffffffffff81111561264e5761264d611820565b5b80860161265b89826125c5565b8552602085019450505060208101905061262b565b5050509392505050565b60006126873684846125f3565b905092915050565b600081905092915050565b50565b60006126aa60008361268f565b91506126b58261269a565b600082019050919050565b60006126cb8261269d565b9150819050919050565b7f446f6e6174696f6e204661696c65640000000000000000000000000000000000600082015250565b600061270b600f836121e4565b9150612716826126d5565b602082019050919050565b6000602082019050818103600083015261273a816126fe565b905091905056fea2646970667358221220a4f0e4d6794b1034152c97594e3228736ac2778d298711dce3800330c2d2c00f64736f6c63430008080033",
  "devdoc": {
    "kind": "dev",
    "methods": {},
    "version": 1
  },
  "userdoc": {
    "kind": "user",
    "methods": {},
    "version": 1
  },
  "storageLayout": {
    "storage": [
      {
        "astId": 6,
        "contract": "contracts/CharityHosting.sol:CharityHosting",
        "label": "numberOfCharitiesRegistered",
        "offset": 0,
        "slot": "0",
        "type": "t_uint32"
      },
      {
        "astId": 37,
        "contract": "contracts/CharityHosting.sol:CharityHosting",
        "label": "charityIdToDonorArray",
        "offset": 0,
        "slot": "1",
        "type": "t_mapping(t_uint32,t_array(t_struct(Donor)13_storage)dyn_storage)"
      },
      {
        "astId": 41,
        "contract": "contracts/CharityHosting.sol:CharityHosting",
        "label": "charityTokenNameToCharityId",
        "offset": 0,
        "slot": "2",
        "type": "t_mapping(t_string_memory_ptr,t_uint32)"
      },
      {
        "astId": 45,
        "contract": "contracts/CharityHosting.sol:CharityHosting",
        "label": "charities",
        "offset": 0,
        "slot": "3",
        "type": "t_array(t_struct(Charity)31_storage)dyn_storage"
      }
    ],
    "types": {
      "t_address": {
        "encoding": "inplace",
        "label": "address",
        "numberOfBytes": "20"
      },
      "t_array(t_string_storage)dyn_storage": {
        "base": "t_string_storage",
        "encoding": "dynamic_array",
        "label": "string[]",
        "numberOfBytes": "32"
      },
      "t_array(t_struct(Charity)31_storage)dyn_storage": {
        "base": "t_struct(Charity)31_storage",
        "encoding": "dynamic_array",
        "label": "struct CharityHosting.Charity[]",
        "numberOfBytes": "32"
      },
      "t_array(t_struct(Donor)13_storage)dyn_storage": {
        "base": "t_struct(Donor)13_storage",
        "encoding": "dynamic_array",
        "label": "struct CharityHosting.Donor[]",
        "numberOfBytes": "32"
      },
      "t_mapping(t_string_memory_ptr,t_uint32)": {
        "encoding": "mapping",
        "key": "t_string_memory_ptr",
        "label": "mapping(string => uint32)",
        "numberOfBytes": "32",
        "value": "t_uint32"
      },
      "t_mapping(t_uint32,t_array(t_struct(Donor)13_storage)dyn_storage)": {
        "encoding": "mapping",
        "key": "t_uint32",
        "label": "mapping(uint32 => struct CharityHosting.Donor[])",
        "numberOfBytes": "32",
        "value": "t_array(t_struct(Donor)13_storage)dyn_storage"
      },
      "t_string_memory_ptr": {
        "encoding": "bytes",
        "label": "string",
        "numberOfBytes": "32"
      },
      "t_string_storage": {
        "encoding": "bytes",
        "label": "string",
        "numberOfBytes": "32"
      },
      "t_struct(Charity)31_storage": {
        "encoding": "inplace",
        "label": "struct CharityHosting.Charity",
        "members": [
          {
            "astId": 15,
            "contract": "contracts/CharityHosting.sol:CharityHosting",
            "label": "credibility",
            "offset": 0,
            "slot": "0",
            "type": "t_uint8"
          },
          {
            "astId": 17,
            "contract": "contracts/CharityHosting.sol:CharityHosting",
            "label": "charityId",
            "offset": 1,
            "slot": "0",
            "type": "t_uint32"
          },
          {
            "astId": 19,
            "contract": "contracts/CharityHosting.sol:CharityHosting",
            "label": "amountRaised",
            "offset": 0,
            "slot": "1",
            "type": "t_uint256"
          },
          {
            "astId": 21,
            "contract": "contracts/CharityHosting.sol:CharityHosting",
            "label": "name",
            "offset": 0,
            "slot": "2",
            "type": "t_string_storage"
          },
          {
            "astId": 24,
            "contract": "contracts/CharityHosting.sol:CharityHosting",
            "label": "tags",
            "offset": 0,
            "slot": "3",
            "type": "t_array(t_string_storage)dyn_storage"
          },
          {
            "astId": 26,
            "contract": "contracts/CharityHosting.sol:CharityHosting",
            "label": "tokenName",
            "offset": 0,
            "slot": "4",
            "type": "t_string_storage"
          },
          {
            "astId": 28,
            "contract": "contracts/CharityHosting.sol:CharityHosting",
            "label": "agenda",
            "offset": 0,
            "slot": "5",
            "type": "t_string_storage"
          },
          {
            "astId": 30,
            "contract": "contracts/CharityHosting.sol:CharityHosting",
            "label": "ownerAddress",
            "offset": 0,
            "slot": "6",
            "type": "t_address"
          }
        ],
        "numberOfBytes": "224"
      },
      "t_struct(Donor)13_storage": {
        "encoding": "inplace",
        "label": "struct CharityHosting.Donor",
        "members": [
          {
            "astId": 8,
            "contract": "contracts/CharityHosting.sol:CharityHosting",
            "label": "vote",
            "offset": 0,
            "slot": "0",
            "type": "t_uint8"
          },
          {
            "astId": 10,
            "contract": "contracts/CharityHosting.sol:CharityHosting",
            "label": "amountDonated",
            "offset": 0,
            "slot": "1",
            "type": "t_uint256"
          },
          {
            "astId": 12,
            "contract": "contracts/CharityHosting.sol:CharityHosting",
            "label": "donorAddress",
            "offset": 0,
            "slot": "2",
            "type": "t_address"
          }
        ],
        "numberOfBytes": "96"
      },
      "t_uint256": {
        "encoding": "inplace",
        "label": "uint256",
        "numberOfBytes": "32"
      },
      "t_uint32": {
        "encoding": "inplace",
        "label": "uint32",
        "numberOfBytes": "4"
      },
      "t_uint8": {
        "encoding": "inplace",
        "label": "uint8",
        "numberOfBytes": "1"
      }
    }
  }
}