{
  "address": "0x57C29baF1ec1667Fc461D5d8EdBA5C7D4cd66768",
  "abi": [
    {
      "inputs": [
        {
          "internalType": "string",
          "name": "_name",
          "type": "string"
        },
        {
          "internalType": "string",
          "name": "_tokenName",
          "type": "string"
        },
        {
          "internalType": "string",
          "name": "_agenda",
          "type": "string"
        },
        {
          "internalType": "string[]",
          "name": "_tags",
          "type": "string[]"
        },
        {
          "internalType": "address",
          "name": "_ownerAddress",
          "type": "address"
        }
      ],
      "name": "createCharity",
      "outputs": [],
      "stateMutability": "nonpayable",
      "type": "function"
    },
    {
      "inputs": [
        {
          "internalType": "string",
          "name": "_tokenName",
          "type": "string"
        }
      ],
      "name": "donate",
      "outputs": [],
      "stateMutability": "payable",
      "type": "function"
    },
    {
      "inputs": [
        {
          "internalType": "string",
          "name": "_tokenName",
          "type": "string"
        }
      ],
      "name": "getCharityByTokenName",
      "outputs": [
        {
          "components": [
            {
              "internalType": "uint32",
              "name": "charityId",
              "type": "uint32"
            },
            {
              "internalType": "uint256",
              "name": "credibility",
              "type": "uint256"
            },
            {
              "internalType": "uint256",
              "name": "amountRaised",
              "type": "uint256"
            },
            {
              "internalType": "string",
              "name": "name",
              "type": "string"
            },
            {
              "internalType": "string[]",
              "name": "tags",
              "type": "string[]"
            },
            {
              "internalType": "string",
              "name": "tokenName",
              "type": "string"
            },
            {
              "internalType": "string",
              "name": "agenda",
              "type": "string"
            },
            {
              "internalType": "address",
              "name": "ownerAddress",
              "type": "address"
            }
          ],
          "internalType": "struct CharityHosting.Charity",
          "name": "",
          "type": "tuple"
        }
      ],
      "stateMutability": "view",
      "type": "function"
    },
    {
      "inputs": [],
      "name": "getCharityList",
      "outputs": [
        {
          "components": [
            {
              "internalType": "uint32",
              "name": "charityId",
              "type": "uint32"
            },
            {
              "internalType": "uint256",
              "name": "credibility",
              "type": "uint256"
            },
            {
              "internalType": "uint256",
              "name": "amountRaised",
              "type": "uint256"
            },
            {
              "internalType": "string",
              "name": "name",
              "type": "string"
            },
            {
              "internalType": "string[]",
              "name": "tags",
              "type": "string[]"
            },
            {
              "internalType": "string",
              "name": "tokenName",
              "type": "string"
            },
            {
              "internalType": "string",
              "name": "agenda",
              "type": "string"
            },
            {
              "internalType": "address",
              "name": "ownerAddress",
              "type": "address"
            }
          ],
          "internalType": "struct CharityHosting.Charity[]",
          "name": "",
          "type": "tuple[]"
        }
      ],
      "stateMutability": "view",
      "type": "function"
    },
    {
      "inputs": [
        {
          "internalType": "string",
          "name": "_tokenName",
          "type": "string"
        }
      ],
      "name": "getDonorsArrayByTokenName",
      "outputs": [
        {
          "components": [
            {
              "internalType": "int8",
              "name": "vote",
              "type": "int8"
            },
            {
              "internalType": "uint256",
              "name": "amountDonated",
              "type": "uint256"
            },
            {
              "internalType": "address",
              "name": "donorAddress",
              "type": "address"
            }
          ],
          "internalType": "struct CharityHosting.Donor[]",
          "name": "",
          "type": "tuple[]"
        }
      ],
      "stateMutability": "view",
      "type": "function"
    },
    {
      "inputs": [],
      "name": "getNumberOfCharitiesRegistered",
      "outputs": [
        {
          "internalType": "uint32",
          "name": "",
          "type": "uint32"
        }
      ],
      "stateMutability": "view",
      "type": "function"
    },
    {
      "inputs": [
        {
          "internalType": "string",
          "name": "_tokenName",
          "type": "string"
        },
        {
          "internalType": "int8",
          "name": "_vote",
          "type": "int8"
        }
      ],
      "name": "vouch",
      "outputs": [],
      "stateMutability": "nonpayable",
      "type": "function"
    }
  ],
  "transactionHash": "0xe8a2775141afcca4b79feb2f5adf922994ea4898d52cc04598a2798aa963c109",
  "args": [],
  "numDeployments": 3,
  "solcInputHash": "53e1dfd74aba34b0452f8bfeb0e0c78e",
  "bytecode": "0x608060405260008060006101000a81548163ffffffff021916908363ffffffff16021790555034801561003157600080fd5b506129a0806100416000396000f3fe6080604052600436106100705760003560e01c80639ad6b0f21161004e5780639ad6b0f214610106578063b5aebc801461012f578063e067f8e21461014b578063fb64b94d1461018857610070565b80630795bb03146100755780632ab2b68c146100b25780636ba4194a146100db575b600080fd5b34801561008157600080fd5b5061009c600480360381019061009791906118db565b6101b3565b6040516100a99190611bc1565b60405180910390f35b3480156100be57600080fd5b506100d960048036038101906100d49190611c1c565b610546565b005b3480156100e757600080fd5b506100f0610944565b6040516100fd9190611e03565b60405180910390f35b34801561011257600080fd5b5061012d60048036038101906101289190611ea7565b610cc9565b005b610149600480360381019061014491906118db565b611080565b005b34801561015757600080fd5b50610172600480360381019061016d91906118db565b611305565b60405161017f91906120a3565b60405180910390f35b34801561019457600080fd5b5061019d611431565b6040516101aa91906120d4565b60405180910390f35b6101bb611661565b6004600284846040516101cf92919061212e565b908152602001604051809103902060009054906101000a900463ffffffff1663ffffffff168154811061020557610204612147565b5b9060005260206000209060080201604051806101000160405290816000820160009054906101000a900463ffffffff1663ffffffff1663ffffffff1681526020016001820154815260200160028201548152602001600382018054610269906121a5565b80601f0160208091040260200160405190810160405280929190818152602001828054610295906121a5565b80156102e25780601f106102b7576101008083540402835291602001916102e2565b820191906000526020600020905b8154815290600101906020018083116102c557829003601f168201915b5050505050815260200160048201805480602002602001604051908101604052809291908181526020016000905b828210156103bc57838290600052602060002001805461032f906121a5565b80601f016020809104026020016040519081016040528092919081815260200182805461035b906121a5565b80156103a85780601f1061037d576101008083540402835291602001916103a8565b820191906000526020600020905b81548152906001019060200180831161038b57829003601f168201915b505050505081526020019060010190610310565b5050505081526020016005820180546103d4906121a5565b80601f0160208091040260200160405190810160405280929190818152602001828054610400906121a5565b801561044d5780601f106104225761010080835404028352916020019161044d565b820191906000526020600020905b81548152906001019060200180831161043057829003601f168201915b50505050508152602001600682018054610466906121a5565b80601f0160208091040260200160405190810160405280929190818152602001828054610492906121a5565b80156104df5780601f106104b4576101008083540402835291602001916104df565b820191906000526020600020905b8154815290600101906020018083116104c257829003601f168201915b505050505081526020016007820160009054906101000a900473ffffffffffffffffffffffffffffffffffffffff1673ffffffffffffffffffffffffffffffffffffffff1673ffffffffffffffffffffffffffffffffffffffff1681525050905092915050565b60008080600090506000600160006002898960405161056692919061212e565b908152602001604051809103902060009054906101000a900463ffffffff1663ffffffff1663ffffffff168152602001908152602001600020805480602002602001604051908101604052809291908181526020016000905b8282101561066e57838290600052602060002090600302016040518060600160405290816000820160009054906101000a900460000b60000b60000b8152602001600182015481526020016002820160009054906101000a900473ffffffffffffffffffffffffffffffffffffffff1673ffffffffffffffffffffffffffffffffffffffff1673ffffffffffffffffffffffffffffffffffffffff1681525050815260200190600101906105bf565b505050509050600181516106829190612206565b92505b600083126107b7578083815181106106a05761069f612147565b5b60200260200101516040015173ffffffffffffffffffffffffffffffffffffffff163373ffffffffffffffffffffffffffffffffffffffff16141561074c5760008184815181106106f4576106f3612147565b5b60200260200101516000015160000b14610743576040517f08c379a000000000000000000000000000000000000000000000000000000000815260040161073a90612297565b60405180910390fd5b600193506107b7565b80838151811061075f5761075e612147565b5b60200260200101516020015181848151811061077e5761077d612147565b5b60200260200101516000015160000b61079791906122c1565b826107a291906123d8565b915082806107af9061246c565b935050610685565b836107f7576040517f08c379a00000000000000000000000000000000000000000000000000000000081526004016107ee90612501565b60405180910390fd5b846001600060028a8a60405161080e92919061212e565b908152602001604051809103902060009054906101000a900463ffffffff1663ffffffff1663ffffffff168152602001908152602001600020848154811061085957610858612147565b5b906000526020600020906003020160000160006101000a81548160ff021916908360000b60ff160217905550600083126108a65761089887878561144a565b826108a391906123d8565b91505b60006004600289896040516108bc92919061212e565b908152602001604051809103902060009054906101000a900463ffffffff1663ffffffff16815481106108f2576108f1612147565b5b906000526020600020906008020160020154905060008160328561091691906122c1565b6109209190612550565b603261092c91906123d8565b9050610939818a8a6115fc565b505050505050505050565b606060006004805480602002602001604051908101604052809291908181526020016000905b82821015610cbc5783829060005260206000209060080201604051806101000160405290816000820160009054906101000a900463ffffffff1663ffffffff1663ffffffff16815260200160018201548152602001600282015481526020016003820180546109d8906121a5565b80601f0160208091040260200160405190810160405280929190818152602001828054610a04906121a5565b8015610a515780601f10610a2657610100808354040283529160200191610a51565b820191906000526020600020905b815481529060010190602001808311610a3457829003601f168201915b5050505050815260200160048201805480602002602001604051908101604052809291908181526020016000905b82821015610b2b578382906000526020600020018054610a9e906121a5565b80601f0160208091040260200160405190810160405280929190818152602001828054610aca906121a5565b8015610b175780601f10610aec57610100808354040283529160200191610b17565b820191906000526020600020905b815481529060010190602001808311610afa57829003601f168201915b505050505081526020019060010190610a7f565b505050508152602001600582018054610b43906121a5565b80601f0160208091040260200160405190810160405280929190818152602001828054610b6f906121a5565b8015610bbc5780601f10610b9157610100808354040283529160200191610bbc565b820191906000526020600020905b815481529060010190602001808311610b9f57829003601f168201915b50505050508152602001600682018054610bd5906121a5565b80601f0160208091040260200160405190810160405280929190818152602001828054610c01906121a5565b8015610c4e5780601f10610c2357610100808354040283529160200191610c4e565b820191906000526020600020905b815481529060010190602001808311610c3157829003601f168201915b505050505081526020016007820160009054906101000a900473ffffffffffffffffffffffffffffffffffffffff1673ffffffffffffffffffffffffffffffffffffffff1673ffffffffffffffffffffffffffffffffffffffff16815250508152602001906001019061096a565b5050505090508091505090565b60038787604051610cdb92919061212e565b908152602001604051809103902060009054906101000a900460ff1615610d37576040517f08c379a0000000000000000000000000000000000000000000000000000000008152600401610d2e9061262c565b60405180910390fd5b610d3f611661565b60008081819054906101000a900463ffffffff1680929190610d609061264c565b91906101000a81548163ffffffff021916908363ffffffff160217905550816000019063ffffffff16908163ffffffff168152505089898080601f016020809104026020016040519081016040528093929190818152602001838380828437600081840152601f19601f82011690508083019250505050505050816060018190525087878080601f016020809104026020016040519081016040528093929190818152602001838380828437600081840152601f19601f820116905080830192505050505050508160a00181905250600160038989604051610e4392919061212e565b908152602001604051809103902060006101000a81548160ff021916908315150217905550806000015160028989604051610e7f92919061212e565b908152602001604051809103902060006101000a81548163ffffffff021916908363ffffffff16021790555085858080601f016020809104026020016040519081016040528093929190818152602001838380828437600081840152601f19601f820116905080830192505050505050508160c00181905250838390610f05919061284d565b8160800181905250818160e0019073ffffffffffffffffffffffffffffffffffffffff16908173ffffffffffffffffffffffffffffffffffffffff16815250506032816020018181525050600481908060018154018082558091505060019003906000526020600020906008020160009091909190915060008201518160000160006101000a81548163ffffffff021916908363ffffffff16021790555060208201518160010155604082015181600201556060820151816003019080519060200190610fd39291906116c2565b506080820151816004019080519060200190610ff0929190611748565b5060a082015181600501908051906020019061100d9291906116c2565b5060c082015181600601908051906020019061102a9291906116c2565b5060e08201518160070160006101000a81548173ffffffffffffffffffffffffffffffffffffffff021916908373ffffffffffffffffffffffffffffffffffffffff160217905550505050505050505050505050565b6110886117a8565b60006002848460405161109c92919061212e565b908152602001604051809103902060009054906101000a900463ffffffff16905033826040019073ffffffffffffffffffffffffffffffffffffffff16908173ffffffffffffffffffffffffffffffffffffffff168152505034826020018181525050600160008263ffffffff1663ffffffff16815260200190815260200160002082908060018154018082558091505060019003906000526020600020906003020160009091909190915060008201518160000160006101000a81548160ff021916908360000b60ff1602179055506020820151816001015560408201518160020160006101000a81548173ffffffffffffffffffffffffffffffffffffffff021916908373ffffffffffffffffffffffffffffffffffffffff1602179055505050600060048263ffffffff16815481106111db576111da612147565b5b906000526020600020906008020160070160009054906101000a900473ffffffffffffffffffffffffffffffffffffffff16905060008173ffffffffffffffffffffffffffffffffffffffff163460405161123590612893565b60006040518083038185875af1925050503d8060008114611272576040519150601f19603f3d011682016040523d82523d6000602084013e611277565b606091505b50509050806112bb576040517f08c379a00000000000000000000000000000000000000000000000000000000081526004016112b2906128f4565b60405180910390fd5b3460048463ffffffff16815481106112d6576112d5612147565b5b906000526020600020906008020160020160008282546112f69190612914565b92505081905550505050505050565b6060600160006002858560405161131d92919061212e565b908152602001604051809103902060009054906101000a900463ffffffff1663ffffffff1663ffffffff168152602001908152602001600020805480602002602001604051908101604052809291908181526020016000905b8282101561142557838290600052602060002090600302016040518060600160405290816000820160009054906101000a900460000b60000b60000b8152602001600182015481526020016002820160009054906101000a900473ffffffffffffffffffffffffffffffffffffffff1673ffffffffffffffffffffffffffffffffffffffff1673ffffffffffffffffffffffffffffffffffffffff168152505081526020019060010190611376565b50505050905092915050565b60008060009054906101000a900463ffffffff16905090565b600080600160006002878760405161146392919061212e565b908152602001604051809103902060009054906101000a900463ffffffff1663ffffffff1663ffffffff168152602001908152602001600020805480602002602001604051908101604052809291908181526020016000905b8282101561156b57838290600052602060002090600302016040518060600160405290816000820160009054906101000a900460000b60000b60000b8152602001600182015481526020016002820160009054906101000a900473ffffffffffffffffffffffffffffffffffffffff1673ffffffffffffffffffffffffffffffffffffffff1673ffffffffffffffffffffffffffffffffffffffff1681525050815260200190600101906114bc565b505050509050600080600090508491505b600082126115ef5782828151811061159757611596612147565b5b6020026020010151602001518383815181106115b6576115b5612147565b5b60200260200101516000015160000b6115cf91906122c1565b816115da91906123d8565b905081806115e79061246c565b92505061157c565b8093505050509392505050565b8260046002848460405161161192919061212e565b908152602001604051809103902060009054906101000a900463ffffffff1663ffffffff168154811061164757611646612147565b5b906000526020600020906008020160010181905550505050565b604051806101000160405280600063ffffffff168152602001600081526020016000815260200160608152602001606081526020016060815260200160608152602001600073ffffffffffffffffffffffffffffffffffffffff1681525090565b8280546116ce906121a5565b90600052602060002090601f0160209004810192826116f05760008555611737565b82601f1061170957805160ff1916838001178555611737565b82800160010185558215611737579182015b8281111561173657825182559160200191906001019061171b565b5b50905061174491906117e1565b5090565b828054828255906000526020600020908101928215611797579160200282015b828111156117965782518290805190602001906117869291906116c2565b5091602001919060010190611768565b5b5090506117a491906117fe565b5090565b60405180606001604052806000800b815260200160008152602001600073ffffffffffffffffffffffffffffffffffffffff1681525090565b5b808211156117fa5760008160009055506001016117e2565b5090565b5b8082111561181e57600081816118159190611822565b506001016117ff565b5090565b50805461182e906121a5565b6000825580601f10611840575061185f565b601f01602090049060005260206000209081019061185e91906117e1565b5b50565b6000604051905090565b600080fd5b600080fd5b600080fd5b600080fd5b600080fd5b60008083601f84011261189b5761189a611876565b5b8235905067ffffffffffffffff8111156118b8576118b761187b565b5b6020830191508360018202830111156118d4576118d3611880565b5b9250929050565b600080602083850312156118f2576118f161186c565b5b600083013567ffffffffffffffff8111156119105761190f611871565b5b61191c85828601611885565b92509250509250929050565b600063ffffffff82169050919050565b61194181611928565b82525050565b6000819050919050565b61195a81611947565b82525050565b600081519050919050565b600082825260208201905092915050565b60005b8381101561199a57808201518184015260208101905061197f565b838111156119a9576000848401525b50505050565b6000601f19601f8301169050919050565b60006119cb82611960565b6119d5818561196b565b93506119e581856020860161197c565b6119ee816119af565b840191505092915050565b600081519050919050565b600082825260208201905092915050565b6000819050602082019050919050565b6000611a3183836119c0565b905092915050565b6000602082019050919050565b6000611a51826119f9565b611a5b8185611a04565b935083602082028501611a6d85611a15565b8060005b85811015611aa95784840389528151611a8a8582611a25565b9450611a9583611a39565b925060208a01995050600181019050611a71565b50829750879550505050505092915050565b600073ffffffffffffffffffffffffffffffffffffffff82169050919050565b6000611ae682611abb565b9050919050565b611af681611adb565b82525050565b600061010083016000830151611b156000860182611938565b506020830151611b286020860182611951565b506040830151611b3b6040860182611951565b5060608301518482036060860152611b5382826119c0565b91505060808301518482036080860152611b6d8282611a46565b91505060a083015184820360a0860152611b8782826119c0565b91505060c083015184820360c0860152611ba182826119c0565b91505060e0830151611bb660e0860182611aed565b508091505092915050565b60006020820190508181036000830152611bdb8184611afc565b905092915050565b60008160000b9050919050565b611bf981611be3565b8114611c0457600080fd5b50565b600081359050611c1681611bf0565b92915050565b600080600060408486031215611c3557611c3461186c565b5b600084013567ffffffffffffffff811115611c5357611c52611871565b5b611c5f86828701611885565b93509350506020611c7286828701611c07565b9150509250925092565b600081519050919050565b600082825260208201905092915050565b6000819050602082019050919050565b600061010083016000830151611cc16000860182611938565b506020830151611cd46020860182611951565b506040830151611ce76040860182611951565b5060608301518482036060860152611cff82826119c0565b91505060808301518482036080860152611d198282611a46565b91505060a083015184820360a0860152611d3382826119c0565b91505060c083015184820360c0860152611d4d82826119c0565b91505060e0830151611d6260e0860182611aed565b508091505092915050565b6000611d798383611ca8565b905092915050565b6000602082019050919050565b6000611d9982611c7c565b611da38185611c87565b935083602082028501611db585611c98565b8060005b85811015611df15784840389528151611dd28582611d6d565b9450611ddd83611d81565b925060208a01995050600181019050611db9565b50829750879550505050505092915050565b60006020820190508181036000830152611e1d8184611d8e565b905092915050565b60008083601f840112611e3b57611e3a611876565b5b8235905067ffffffffffffffff811115611e5857611e5761187b565b5b602083019150836020820283011115611e7457611e73611880565b5b9250929050565b611e8481611adb565b8114611e8f57600080fd5b50565b600081359050611ea181611e7b565b92915050565b600080600080600080600080600060a08a8c031215611ec957611ec861186c565b5b60008a013567ffffffffffffffff811115611ee757611ee6611871565b5b611ef38c828d01611885565b995099505060208a013567ffffffffffffffff811115611f1657611f15611871565b5b611f228c828d01611885565b975097505060408a013567ffffffffffffffff811115611f4557611f44611871565b5b611f518c828d01611885565b955095505060608a013567ffffffffffffffff811115611f7457611f73611871565b5b611f808c828d01611e25565b93509350506080611f938c828d01611e92565b9150509295985092959850929598565b600081519050919050565b600082825260208201905092915050565b6000819050602082019050919050565b611fd881611be3565b82525050565b606082016000820151611ff46000850182611fcf565b5060208201516120076020850182611951565b50604082015161201a6040850182611aed565b50505050565b600061202c8383611fde565b60608301905092915050565b6000602082019050919050565b600061205082611fa3565b61205a8185611fae565b935061206583611fbf565b8060005b8381101561209657815161207d8882612020565b975061208883612038565b925050600181019050612069565b5085935050505092915050565b600060208201905081810360008301526120bd8184612045565b905092915050565b6120ce81611928565b82525050565b60006020820190506120e960008301846120c5565b92915050565b600081905092915050565b82818337600083830152505050565b600061211583856120ef565b93506121228385846120fa565b82840190509392505050565b600061213b828486612109565b91508190509392505050565b7f4e487b7100000000000000000000000000000000000000000000000000000000600052603260045260246000fd5b7f4e487b7100000000000000000000000000000000000000000000000000000000600052602260045260246000fd5b600060028204905060018216806121bd57607f821691505b602082108114156121d1576121d0612176565b5b50919050565b7f4e487b7100000000000000000000000000000000000000000000000000000000600052601160045260246000fd5b600061221182611947565b915061221c83611947565b92508282101561222f5761222e6121d7565b5b828203905092915050565b600082825260208201905092915050565b7f416c726561647920566f74656400000000000000000000000000000000000000600082015250565b6000612281600d8361223a565b915061228c8261224b565b602082019050919050565b600060208201905081810360008301526122b081612274565b9050919050565b6000819050919050565b60006122cc826122b7565b91506122d7836122b7565b9250827f7fffffffffffffffffffffffffffffffffffffffffffffffffffffffffffffff0482116000841360008413161615612316576123156121d7565b5b817f80000000000000000000000000000000000000000000000000000000000000000583126000841260008413161615612353576123526121d7565b5b827f800000000000000000000000000000000000000000000000000000000000000005821260008413600084121616156123905761238f6121d7565b5b827f7fffffffffffffffffffffffffffffffffffffffffffffffffffffffffffffff05821260008412600084121616156123cd576123cc6121d7565b5b828202905092915050565b60006123e3826122b7565b91506123ee836122b7565b9250817f7fffffffffffffffffffffffffffffffffffffffffffffffffffffffffffffff03831360008312151615612429576124286121d7565b5b817f8000000000000000000000000000000000000000000000000000000000000000038312600083121615612461576124606121d7565b5b828201905092915050565b6000612477826122b7565b91507f80000000000000000000000000000000000000000000000000000000000000008214156124aa576124a96121d7565b5b600182039050919050565b7f43616e6e6f7420566f7465000000000000000000000000000000000000000000600082015250565b60006124eb600b8361223a565b91506124f6826124b5565b602082019050919050565b6000602082019050818103600083015261251a816124de565b9050919050565b7f4e487b7100000000000000000000000000000000000000000000000000000000600052601260045260246000fd5b600061255b826122b7565b9150612566836122b7565b92508261257657612575612521565b5b600160000383147f8000000000000000000000000000000000000000000000000000000000000000831416156125af576125ae6121d7565b5b828205905092915050565b7f506c65617365204368616e6765204e616d65206f6620796f757220436861726960008201527f74792c2054686973206e616d6520616c72656164792065786973747300000000602082015250565b6000612616603c8361223a565b9150612621826125ba565b604082019050919050565b6000602082019050818103600083015261264581612609565b9050919050565b600061265782611928565b915063ffffffff82141561266e5761266d6121d7565b5b600182019050919050565b7f4e487b7100000000000000000000000000000000000000000000000000000000600052604160045260246000fd5b6126b1826119af565b810181811067ffffffffffffffff821117156126d0576126cf612679565b5b80604052505050565b60006126e3611862565b90506126ef82826126a8565b919050565b600067ffffffffffffffff82111561270f5761270e612679565b5b602082029050602081019050919050565b600080fd5b600067ffffffffffffffff8211156127405761273f612679565b5b612749826119af565b9050602081019050919050565b600061276961276484612725565b6126d9565b90508281526020810184848401111561278557612784612720565b5b6127908482856120fa565b509392505050565b600082601f8301126127ad576127ac611876565b5b81356127bd848260208601612756565b91505092915050565b60006127d96127d4846126f4565b6126d9565b905080838252602082019050602084028301858111156127fc576127fb611880565b5b835b8181101561284357803567ffffffffffffffff81111561282157612820611876565b5b80860161282e8982612798565b855260208501945050506020810190506127fe565b5050509392505050565b600061285a3684846127c6565b905092915050565b600081905092915050565b50565b600061287d600083612862565b91506128888261286d565b600082019050919050565b600061289e82612870565b9150819050919050565b7f446f6e6174696f6e204661696c65640000000000000000000000000000000000600082015250565b60006128de600f8361223a565b91506128e9826128a8565b602082019050919050565b6000602082019050818103600083015261290d816128d1565b9050919050565b600061291f82611947565b915061292a83611947565b9250827fffffffffffffffffffffffffffffffffffffffffffffffffffffffffffffffff0382111561295f5761295e6121d7565b5b82820190509291505056fea2646970667358221220fb9a5ff864ca8df28e229519772fd121e0db3c397fdd9e4d64f039d1e10559d364736f6c63430008080033",
  "devdoc": {
    "kind": "dev",
    "methods": {},
    "version": 1
  },
  "userdoc": {
    "kind": "user",
    "methods": {},
    "version": 1
  },
  "storageLayout": {
    "storage": [
      {
        "astId": 4,
        "contract": "contracts/CharityHosting.sol:CharityHosting",
        "label": "numberOfCharitiesRegistered",
        "offset": 0,
        "slot": "0",
        "type": "t_uint32"
      },
      {
        "astId": 35,
        "contract": "contracts/CharityHosting.sol:CharityHosting",
        "label": "charityIdToDonorArray",
        "offset": 0,
        "slot": "1",
        "type": "t_mapping(t_uint32,t_array(t_struct(Donor)11_storage)dyn_storage)"
      },
      {
        "astId": 39,
        "contract": "contracts/CharityHosting.sol:CharityHosting",
        "label": "charityTokenNameToCharityId",
        "offset": 0,
        "slot": "2",
        "type": "t_mapping(t_string_memory_ptr,t_uint32)"
      },
      {
        "astId": 43,
        "contract": "contracts/CharityHosting.sol:CharityHosting",
        "label": "tokenNameExists",
        "offset": 0,
        "slot": "3",
        "type": "t_mapping(t_string_memory_ptr,t_bool)"
      },
      {
        "astId": 47,
        "contract": "contracts/CharityHosting.sol:CharityHosting",
        "label": "charities",
        "offset": 0,
        "slot": "4",
        "type": "t_array(t_struct(Charity)29_storage)dyn_storage"
      }
    ],
    "types": {
      "t_address": {
        "encoding": "inplace",
        "label": "address",
        "numberOfBytes": "20"
      },
      "t_array(t_string_storage)dyn_storage": {
        "base": "t_string_storage",
        "encoding": "dynamic_array",
        "label": "string[]",
        "numberOfBytes": "32"
      },
      "t_array(t_struct(Charity)29_storage)dyn_storage": {
        "base": "t_struct(Charity)29_storage",
        "encoding": "dynamic_array",
        "label": "struct CharityHosting.Charity[]",
        "numberOfBytes": "32"
      },
      "t_array(t_struct(Donor)11_storage)dyn_storage": {
        "base": "t_struct(Donor)11_storage",
        "encoding": "dynamic_array",
        "label": "struct CharityHosting.Donor[]",
        "numberOfBytes": "32"
      },
      "t_bool": {
        "encoding": "inplace",
        "label": "bool",
        "numberOfBytes": "1"
      },
      "t_int8": {
        "encoding": "inplace",
        "label": "int8",
        "numberOfBytes": "1"
      },
      "t_mapping(t_string_memory_ptr,t_bool)": {
        "encoding": "mapping",
        "key": "t_string_memory_ptr",
        "label": "mapping(string => bool)",
        "numberOfBytes": "32",
        "value": "t_bool"
      },
      "t_mapping(t_string_memory_ptr,t_uint32)": {
        "encoding": "mapping",
        "key": "t_string_memory_ptr",
        "label": "mapping(string => uint32)",
        "numberOfBytes": "32",
        "value": "t_uint32"
      },
      "t_mapping(t_uint32,t_array(t_struct(Donor)11_storage)dyn_storage)": {
        "encoding": "mapping",
        "key": "t_uint32",
        "label": "mapping(uint32 => struct CharityHosting.Donor[])",
        "numberOfBytes": "32",
        "value": "t_array(t_struct(Donor)11_storage)dyn_storage"
      },
      "t_string_memory_ptr": {
        "encoding": "bytes",
        "label": "string",
        "numberOfBytes": "32"
      },
      "t_string_storage": {
        "encoding": "bytes",
        "label": "string",
        "numberOfBytes": "32"
      },
      "t_struct(Charity)29_storage": {
        "encoding": "inplace",
        "label": "struct CharityHosting.Charity",
        "members": [
          {
            "astId": 13,
            "contract": "contracts/CharityHosting.sol:CharityHosting",
            "label": "charityId",
            "offset": 0,
            "slot": "0",
            "type": "t_uint32"
          },
          {
            "astId": 15,
            "contract": "contracts/CharityHosting.sol:CharityHosting",
            "label": "credibility",
            "offset": 0,
            "slot": "1",
            "type": "t_uint256"
          },
          {
            "astId": 17,
            "contract": "contracts/CharityHosting.sol:CharityHosting",
            "label": "amountRaised",
            "offset": 0,
            "slot": "2",
            "type": "t_uint256"
          },
          {
            "astId": 19,
            "contract": "contracts/CharityHosting.sol:CharityHosting",
            "label": "name",
            "offset": 0,
            "slot": "3",
            "type": "t_string_storage"
          },
          {
            "astId": 22,
            "contract": "contracts/CharityHosting.sol:CharityHosting",
            "label": "tags",
            "offset": 0,
            "slot": "4",
            "type": "t_array(t_string_storage)dyn_storage"
          },
          {
            "astId": 24,
            "contract": "contracts/CharityHosting.sol:CharityHosting",
            "label": "tokenName",
            "offset": 0,
            "slot": "5",
            "type": "t_string_storage"
          },
          {
            "astId": 26,
            "contract": "contracts/CharityHosting.sol:CharityHosting",
            "label": "agenda",
            "offset": 0,
            "slot": "6",
            "type": "t_string_storage"
          },
          {
            "astId": 28,
            "contract": "contracts/CharityHosting.sol:CharityHosting",
            "label": "ownerAddress",
            "offset": 0,
            "slot": "7",
            "type": "t_address"
          }
        ],
        "numberOfBytes": "256"
      },
      "t_struct(Donor)11_storage": {
        "encoding": "inplace",
        "label": "struct CharityHosting.Donor",
        "members": [
          {
            "astId": 6,
            "contract": "contracts/CharityHosting.sol:CharityHosting",
            "label": "vote",
            "offset": 0,
            "slot": "0",
            "type": "t_int8"
          },
          {
            "astId": 8,
            "contract": "contracts/CharityHosting.sol:CharityHosting",
            "label": "amountDonated",
            "offset": 0,
            "slot": "1",
            "type": "t_uint256"
          },
          {
            "astId": 10,
            "contract": "contracts/CharityHosting.sol:CharityHosting",
            "label": "donorAddress",
            "offset": 0,
            "slot": "2",
            "type": "t_address"
          }
        ],
        "numberOfBytes": "96"
      },
      "t_uint256": {
        "encoding": "inplace",
        "label": "uint256",
        "numberOfBytes": "32"
      },
      "t_uint32": {
        "encoding": "inplace",
        "label": "uint32",
        "numberOfBytes": "4"
      }
    }
  }
}