{
  "address": "0xc1881230d586221479A21c6cfB8CD442a4422361",
  "abi": [
    {
      "inputs": [
        {
          "internalType": "string",
          "name": "_name",
          "type": "string"
        },
        {
          "internalType": "string",
          "name": "_tokenName",
          "type": "string"
        },
        {
          "internalType": "string",
          "name": "_agenda",
          "type": "string"
        },
        {
          "internalType": "string[]",
          "name": "_tags",
          "type": "string[]"
        },
        {
          "internalType": "address",
          "name": "_ownerAddress",
          "type": "address"
        }
      ],
      "name": "createCharity",
      "outputs": [],
      "stateMutability": "nonpayable",
      "type": "function"
    },
    {
      "inputs": [
        {
          "internalType": "string",
          "name": "_tokenName",
          "type": "string"
        }
      ],
      "name": "donate",
      "outputs": [],
      "stateMutability": "payable",
      "type": "function"
    },
    {
      "inputs": [
        {
          "internalType": "string",
          "name": "_tokenName",
          "type": "string"
        }
      ],
      "name": "getCharityByTokenName",
      "outputs": [
        {
          "components": [
            {
              "internalType": "uint32",
              "name": "charityId",
              "type": "uint32"
            },
            {
              "internalType": "uint32",
              "name": "credibility",
              "type": "uint32"
            },
            {
              "internalType": "uint256",
              "name": "amountRaised",
              "type": "uint256"
            },
            {
              "internalType": "string",
              "name": "name",
              "type": "string"
            },
            {
              "internalType": "string[]",
              "name": "tags",
              "type": "string[]"
            },
            {
              "internalType": "string",
              "name": "tokenName",
              "type": "string"
            },
            {
              "internalType": "string",
              "name": "agenda",
              "type": "string"
            },
            {
              "internalType": "address",
              "name": "ownerAddress",
              "type": "address"
            }
          ],
          "internalType": "struct CharityHosting.Charity",
          "name": "",
          "type": "tuple"
        }
      ],
      "stateMutability": "view",
      "type": "function"
    },
    {
      "inputs": [],
      "name": "getCharityList",
      "outputs": [
        {
          "components": [
            {
              "internalType": "uint32",
              "name": "charityId",
              "type": "uint32"
            },
            {
              "internalType": "uint32",
              "name": "credibility",
              "type": "uint32"
            },
            {
              "internalType": "uint256",
              "name": "amountRaised",
              "type": "uint256"
            },
            {
              "internalType": "string",
              "name": "name",
              "type": "string"
            },
            {
              "internalType": "string[]",
              "name": "tags",
              "type": "string[]"
            },
            {
              "internalType": "string",
              "name": "tokenName",
              "type": "string"
            },
            {
              "internalType": "string",
              "name": "agenda",
              "type": "string"
            },
            {
              "internalType": "address",
              "name": "ownerAddress",
              "type": "address"
            }
          ],
          "internalType": "struct CharityHosting.Charity[]",
          "name": "",
          "type": "tuple[]"
        }
      ],
      "stateMutability": "view",
      "type": "function"
    },
    {
      "inputs": [
        {
          "internalType": "string",
          "name": "_tokenName",
          "type": "string"
        }
      ],
      "name": "getDonorsArrayByTokenName",
      "outputs": [
        {
          "components": [
            {
              "internalType": "int8",
              "name": "vote",
              "type": "int8"
            },
            {
              "internalType": "uint256",
              "name": "amountDonated",
              "type": "uint256"
            },
            {
              "internalType": "address",
              "name": "donorAddress",
              "type": "address"
            }
          ],
          "internalType": "struct CharityHosting.Donor[]",
          "name": "",
          "type": "tuple[]"
        }
      ],
      "stateMutability": "view",
      "type": "function"
    },
    {
      "inputs": [],
      "name": "getNumberOfCharitiesRegistered",
      "outputs": [
        {
          "internalType": "uint32",
          "name": "",
          "type": "uint32"
        }
      ],
      "stateMutability": "view",
      "type": "function"
    },
    {
      "inputs": [
        {
          "internalType": "string",
          "name": "_tokenName",
          "type": "string"
        },
        {
          "internalType": "int8",
          "name": "_vote",
          "type": "int8"
        }
      ],
      "name": "vouch",
      "outputs": [],
      "stateMutability": "nonpayable",
      "type": "function"
    }
  ],
  "transactionHash": "0x3fec170c61030f1b4581e87e8a6bccc00542fdf1dbf840b94639068e1ed1296a",
  "args": [],
  "numDeployments": 5,
  "solcInputHash": "99277263997f154ed3a7b5eb58bcf719",
  "bytecode": "0x608060405260008060006101000a81548163ffffffff021916908363ffffffff16021790555034801561003157600080fd5b50612bc4806100416000396000f3fe6080604052600436106100705760003560e01c80639ad6b0f21161004e5780639ad6b0f214610106578063b5aebc801461012f578063e067f8e21461014b578063fb64b94d1461018857610070565b80630795bb03146100755780632ab2b68c146100b25780636ba4194a146100db575b600080fd5b34801561008157600080fd5b5061009c600480360381019061009791906119c5565b6101b3565b6040516100a99190611cab565b60405180910390f35b3480156100be57600080fd5b506100d960048036038101906100d49190611d06565b610562565b005b3480156100e757600080fd5b506100f06109c7565b6040516100fd9190611eed565b60405180910390f35b34801561011257600080fd5b5061012d60048036038101906101289190611f91565b610d68565b005b610149600480360381019061014491906119c5565b61114a565b005b34801561015757600080fd5b50610172600480360381019061016d91906119c5565b6113cf565b60405161017f919061218d565b60405180910390f35b34801561019457600080fd5b5061019d6114fb565b6040516101aa91906121be565b60405180910390f35b6101bb611745565b6004600284846040516101cf929190612218565b908152602001604051809103902060009054906101000a900463ffffffff1663ffffffff168154811061020557610204612231565b5b9060005260206000209060070201604051806101000160405290816000820160009054906101000a900463ffffffff1663ffffffff1663ffffffff1681526020016000820160049054906101000a900463ffffffff1663ffffffff1663ffffffff168152602001600182015481526020016002820180546102859061228f565b80601f01602080910402602001604051908101604052809291908181526020018280546102b19061228f565b80156102fe5780601f106102d3576101008083540402835291602001916102fe565b820191906000526020600020905b8154815290600101906020018083116102e157829003601f168201915b5050505050815260200160038201805480602002602001604051908101604052809291908181526020016000905b828210156103d857838290600052602060002001805461034b9061228f565b80601f01602080910402602001604051908101604052809291908181526020018280546103779061228f565b80156103c45780601f10610399576101008083540402835291602001916103c4565b820191906000526020600020905b8154815290600101906020018083116103a757829003601f168201915b50505050508152602001906001019061032c565b5050505081526020016004820180546103f09061228f565b80601f016020809104026020016040519081016040528092919081815260200182805461041c9061228f565b80156104695780601f1061043e57610100808354040283529160200191610469565b820191906000526020600020905b81548152906001019060200180831161044c57829003601f168201915b505050505081526020016005820180546104829061228f565b80601f01602080910402602001604051908101604052809291908181526020018280546104ae9061228f565b80156104fb5780601f106104d0576101008083540402835291602001916104fb565b820191906000526020600020905b8154815290600101906020018083116104de57829003601f168201915b505050505081526020016006820160009054906101000a900473ffffffffffffffffffffffffffffffffffffffff1673ffffffffffffffffffffffffffffffffffffffff1673ffffffffffffffffffffffffffffffffffffffff1681525050905092915050565b600080806000905060006001600060028989604051610582929190612218565b908152602001604051809103902060009054906101000a900463ffffffff1663ffffffff1663ffffffff168152602001908152602001600020805480602002602001604051908101604052809291908181526020016000905b8282101561068a57838290600052602060002090600302016040518060600160405290816000820160009054906101000a900460000b60000b60000b8152602001600182015481526020016002820160009054906101000a900473ffffffffffffffffffffffffffffffffffffffff1673ffffffffffffffffffffffffffffffffffffffff1673ffffffffffffffffffffffffffffffffffffffff1681525050815260200190600101906105db565b5050505090506001815161069e91906122f0565b92505b600083126107d3578083815181106106bc576106bb612231565b5b60200260200101516040015173ffffffffffffffffffffffffffffffffffffffff163373ffffffffffffffffffffffffffffffffffffffff1614156107685760008184815181106107105761070f612231565b5b60200260200101516000015160000b1461075f576040517f08c379a000000000000000000000000000000000000000000000000000000000815260040161075690612381565b60405180910390fd5b600193506107d3565b80838151811061077b5761077a612231565b5b60200260200101516020015181848151811061079a57610799612231565b5b60200260200101516000015160000b6107b391906123ab565b826107be91906124c2565b915082806107cb90612556565b9350506106a1565b83610813576040517f08c379a000000000000000000000000000000000000000000000000000000000815260040161080a906125eb565b60405180910390fd5b6000859050600160008260000b13610834578161082f9061260b565b610836565b815b60000b14610879576040517f08c379a0000000000000000000000000000000000000000000000000000000008152600401610870906126a0565b60405180910390fd5b856001600060028b8b604051610890929190612218565b908152602001604051809103902060009054906101000a900463ffffffff1663ffffffff1663ffffffff16815260200190815260200160002085815481106108db576108da612231565b5b906000526020600020906003020160000160006101000a81548160ff021916908360000b60ff160217905550600084126109285761091a888886611514565b8361092591906124c2565b92505b6000600460028a8a60405161093e929190612218565b908152602001604051809103902060009054906101000a900463ffffffff1663ffffffff168154811061097457610973612231565b5b906000526020600020906007020160010154905060008160328661099891906123ab565b6109a291906126ef565b60326109ae9190612766565b90506109bb818b8b6116c6565b50505050505050505050565b606060006004805480602002602001604051908101604052809291908181526020016000905b82821015610d5b5783829060005260206000209060070201604051806101000160405290816000820160009054906101000a900463ffffffff1663ffffffff1663ffffffff1681526020016000820160049054906101000a900463ffffffff1663ffffffff1663ffffffff16815260200160018201548152602001600282018054610a779061228f565b80601f0160208091040260200160405190810160405280929190818152602001828054610aa39061228f565b8015610af05780601f10610ac557610100808354040283529160200191610af0565b820191906000526020600020905b815481529060010190602001808311610ad357829003601f168201915b5050505050815260200160038201805480602002602001604051908101604052809291908181526020016000905b82821015610bca578382906000526020600020018054610b3d9061228f565b80601f0160208091040260200160405190810160405280929190818152602001828054610b699061228f565b8015610bb65780601f10610b8b57610100808354040283529160200191610bb6565b820191906000526020600020905b815481529060010190602001808311610b9957829003601f168201915b505050505081526020019060010190610b1e565b505050508152602001600482018054610be29061228f565b80601f0160208091040260200160405190810160405280929190818152602001828054610c0e9061228f565b8015610c5b5780601f10610c3057610100808354040283529160200191610c5b565b820191906000526020600020905b815481529060010190602001808311610c3e57829003601f168201915b50505050508152602001600582018054610c749061228f565b80601f0160208091040260200160405190810160405280929190818152602001828054610ca09061228f565b8015610ced5780601f10610cc257610100808354040283529160200191610ced565b820191906000526020600020905b815481529060010190602001808311610cd057829003601f168201915b505050505081526020016006820160009054906101000a900473ffffffffffffffffffffffffffffffffffffffff1673ffffffffffffffffffffffffffffffffffffffff1673ffffffffffffffffffffffffffffffffffffffff1681525050815260200190600101906109ed565b5050505090508091505090565b60038787604051610d7a929190612218565b908152602001604051809103902060009054906101000a900460ff1615610dd6576040517f08c379a0000000000000000000000000000000000000000000000000000000008152600401610dcd90612850565b60405180910390fd5b610dde611745565b60008081819054906101000a900463ffffffff1680929190610dff90612870565b91906101000a81548163ffffffff021916908363ffffffff160217905550816000019063ffffffff16908163ffffffff168152505089898080601f016020809104026020016040519081016040528093929190818152602001838380828437600081840152601f19601f82011690508083019250505050505050816060018190525087878080601f016020809104026020016040519081016040528093929190818152602001838380828437600081840152601f19601f820116905080830192505050505050508160a00181905250600160038989604051610ee2929190612218565b908152602001604051809103902060006101000a81548160ff021916908315150217905550806000015160028989604051610f1e929190612218565b908152602001604051809103902060006101000a81548163ffffffff021916908363ffffffff16021790555085858080601f016020809104026020016040519081016040528093929190818152602001838380828437600081840152601f19601f820116905080830192505050505050508160c00181905250838390610fa49190612a71565b8160800181905250818160e0019073ffffffffffffffffffffffffffffffffffffffff16908173ffffffffffffffffffffffffffffffffffffffff16815250506032816020019063ffffffff16908163ffffffff1681525050600481908060018154018082558091505060019003906000526020600020906007020160009091909190915060008201518160000160006101000a81548163ffffffff021916908363ffffffff16021790555060208201518160000160046101000a81548163ffffffff021916908363ffffffff16021790555060408201518160010155606082015181600201908051906020019061109d9291906117ac565b5060808201518160030190805190602001906110ba929190611832565b5060a08201518160040190805190602001906110d79291906117ac565b5060c08201518160050190805190602001906110f49291906117ac565b5060e08201518160060160006101000a81548173ffffffffffffffffffffffffffffffffffffffff021916908373ffffffffffffffffffffffffffffffffffffffff160217905550505050505050505050505050565b611152611892565b600060028484604051611166929190612218565b908152602001604051809103902060009054906101000a900463ffffffff16905033826040019073ffffffffffffffffffffffffffffffffffffffff16908173ffffffffffffffffffffffffffffffffffffffff168152505034826020018181525050600160008263ffffffff1663ffffffff16815260200190815260200160002082908060018154018082558091505060019003906000526020600020906003020160009091909190915060008201518160000160006101000a81548160ff021916908360000b60ff1602179055506020820151816001015560408201518160020160006101000a81548173ffffffffffffffffffffffffffffffffffffffff021916908373ffffffffffffffffffffffffffffffffffffffff1602179055505050600060048263ffffffff16815481106112a5576112a4612231565b5b906000526020600020906007020160060160009054906101000a900473ffffffffffffffffffffffffffffffffffffffff16905060008173ffffffffffffffffffffffffffffffffffffffff16346040516112ff90612ab7565b60006040518083038185875af1925050503d806000811461133c576040519150601f19603f3d011682016040523d82523d6000602084013e611341565b606091505b5050905080611385576040517f08c379a000000000000000000000000000000000000000000000000000000000815260040161137c90612b18565b60405180910390fd5b3460048463ffffffff16815481106113a05761139f612231565b5b906000526020600020906007020160010160008282546113c09190612b38565b92505081905550505050505050565b606060016000600285856040516113e7929190612218565b908152602001604051809103902060009054906101000a900463ffffffff1663ffffffff1663ffffffff168152602001908152602001600020805480602002602001604051908101604052809291908181526020016000905b828210156114ef57838290600052602060002090600302016040518060600160405290816000820160009054906101000a900460000b60000b60000b8152602001600182015481526020016002820160009054906101000a900473ffffffffffffffffffffffffffffffffffffffff1673ffffffffffffffffffffffffffffffffffffffff1673ffffffffffffffffffffffffffffffffffffffff168152505081526020019060010190611440565b50505050905092915050565b60008060009054906101000a900463ffffffff16905090565b600080600160006002878760405161152d929190612218565b908152602001604051809103902060009054906101000a900463ffffffff1663ffffffff1663ffffffff168152602001908152602001600020805480602002602001604051908101604052809291908181526020016000905b8282101561163557838290600052602060002090600302016040518060600160405290816000820160009054906101000a900460000b60000b60000b8152602001600182015481526020016002820160009054906101000a900473ffffffffffffffffffffffffffffffffffffffff1673ffffffffffffffffffffffffffffffffffffffff1673ffffffffffffffffffffffffffffffffffffffff168152505081526020019060010190611586565b505050509050600080600090508491505b600082126116b95782828151811061166157611660612231565b5b6020026020010151602001518383815181106116805761167f612231565b5b60200260200101516000015160000b61169991906123ab565b816116a491906124c2565b905081806116b190612556565b925050611646565b8093505050509392505050565b826004600284846040516116db929190612218565b908152602001604051809103902060009054906101000a900463ffffffff1663ffffffff168154811061171157611710612231565b5b906000526020600020906007020160000160046101000a81548163ffffffff021916908363ffffffff160217905550505050565b604051806101000160405280600063ffffffff168152602001600063ffffffff1681526020016000815260200160608152602001606081526020016060815260200160608152602001600073ffffffffffffffffffffffffffffffffffffffff1681525090565b8280546117b89061228f565b90600052602060002090601f0160209004810192826117da5760008555611821565b82601f106117f357805160ff1916838001178555611821565b82800160010185558215611821579182015b82811115611820578251825591602001919060010190611805565b5b50905061182e91906118cb565b5090565b828054828255906000526020600020908101928215611881579160200282015b828111156118805782518290805190602001906118709291906117ac565b5091602001919060010190611852565b5b50905061188e91906118e8565b5090565b60405180606001604052806000800b815260200160008152602001600073ffffffffffffffffffffffffffffffffffffffff1681525090565b5b808211156118e45760008160009055506001016118cc565b5090565b5b8082111561190857600081816118ff919061190c565b506001016118e9565b5090565b5080546119189061228f565b6000825580601f1061192a5750611949565b601f01602090049060005260206000209081019061194891906118cb565b5b50565b6000604051905090565b600080fd5b600080fd5b600080fd5b600080fd5b600080fd5b60008083601f84011261198557611984611960565b5b8235905067ffffffffffffffff8111156119a2576119a1611965565b5b6020830191508360018202830111156119be576119bd61196a565b5b9250929050565b600080602083850312156119dc576119db611956565b5b600083013567ffffffffffffffff8111156119fa576119f961195b565b5b611a068582860161196f565b92509250509250929050565b600063ffffffff82169050919050565b611a2b81611a12565b82525050565b6000819050919050565b611a4481611a31565b82525050565b600081519050919050565b600082825260208201905092915050565b60005b83811015611a84578082015181840152602081019050611a69565b83811115611a93576000848401525b50505050565b6000601f19601f8301169050919050565b6000611ab582611a4a565b611abf8185611a55565b9350611acf818560208601611a66565b611ad881611a99565b840191505092915050565b600081519050919050565b600082825260208201905092915050565b6000819050602082019050919050565b6000611b1b8383611aaa565b905092915050565b6000602082019050919050565b6000611b3b82611ae3565b611b458185611aee565b935083602082028501611b5785611aff565b8060005b85811015611b935784840389528151611b748582611b0f565b9450611b7f83611b23565b925060208a01995050600181019050611b5b565b50829750879550505050505092915050565b600073ffffffffffffffffffffffffffffffffffffffff82169050919050565b6000611bd082611ba5565b9050919050565b611be081611bc5565b82525050565b600061010083016000830151611bff6000860182611a22565b506020830151611c126020860182611a22565b506040830151611c256040860182611a3b565b5060608301518482036060860152611c3d8282611aaa565b91505060808301518482036080860152611c578282611b30565b91505060a083015184820360a0860152611c718282611aaa565b91505060c083015184820360c0860152611c8b8282611aaa565b91505060e0830151611ca060e0860182611bd7565b508091505092915050565b60006020820190508181036000830152611cc58184611be6565b905092915050565b60008160000b9050919050565b611ce381611ccd565b8114611cee57600080fd5b50565b600081359050611d0081611cda565b92915050565b600080600060408486031215611d1f57611d1e611956565b5b600084013567ffffffffffffffff811115611d3d57611d3c61195b565b5b611d498682870161196f565b93509350506020611d5c86828701611cf1565b9150509250925092565b600081519050919050565b600082825260208201905092915050565b6000819050602082019050919050565b600061010083016000830151611dab6000860182611a22565b506020830151611dbe6020860182611a22565b506040830151611dd16040860182611a3b565b5060608301518482036060860152611de98282611aaa565b91505060808301518482036080860152611e038282611b30565b91505060a083015184820360a0860152611e1d8282611aaa565b91505060c083015184820360c0860152611e378282611aaa565b91505060e0830151611e4c60e0860182611bd7565b508091505092915050565b6000611e638383611d92565b905092915050565b6000602082019050919050565b6000611e8382611d66565b611e8d8185611d71565b935083602082028501611e9f85611d82565b8060005b85811015611edb5784840389528151611ebc8582611e57565b9450611ec783611e6b565b925060208a01995050600181019050611ea3565b50829750879550505050505092915050565b60006020820190508181036000830152611f078184611e78565b905092915050565b60008083601f840112611f2557611f24611960565b5b8235905067ffffffffffffffff811115611f4257611f41611965565b5b602083019150836020820283011115611f5e57611f5d61196a565b5b9250929050565b611f6e81611bc5565b8114611f7957600080fd5b50565b600081359050611f8b81611f65565b92915050565b600080600080600080600080600060a08a8c031215611fb357611fb2611956565b5b60008a013567ffffffffffffffff811115611fd157611fd061195b565b5b611fdd8c828d0161196f565b995099505060208a013567ffffffffffffffff81111561200057611fff61195b565b5b61200c8c828d0161196f565b975097505060408a013567ffffffffffffffff81111561202f5761202e61195b565b5b61203b8c828d0161196f565b955095505060608a013567ffffffffffffffff81111561205e5761205d61195b565b5b61206a8c828d01611f0f565b9350935050608061207d8c828d01611f7c565b9150509295985092959850929598565b600081519050919050565b600082825260208201905092915050565b6000819050602082019050919050565b6120c281611ccd565b82525050565b6060820160008201516120de60008501826120b9565b5060208201516120f16020850182611a3b565b5060408201516121046040850182611bd7565b50505050565b600061211683836120c8565b60608301905092915050565b6000602082019050919050565b600061213a8261208d565b6121448185612098565b935061214f836120a9565b8060005b83811015612180578151612167888261210a565b975061217283612122565b925050600181019050612153565b5085935050505092915050565b600060208201905081810360008301526121a7818461212f565b905092915050565b6121b881611a12565b82525050565b60006020820190506121d360008301846121af565b92915050565b600081905092915050565b82818337600083830152505050565b60006121ff83856121d9565b935061220c8385846121e4565b82840190509392505050565b60006122258284866121f3565b91508190509392505050565b7f4e487b7100000000000000000000000000000000000000000000000000000000600052603260045260246000fd5b7f4e487b7100000000000000000000000000000000000000000000000000000000600052602260045260246000fd5b600060028204905060018216806122a757607f821691505b602082108114156122bb576122ba612260565b5b50919050565b7f4e487b7100000000000000000000000000000000000000000000000000000000600052601160045260246000fd5b60006122fb82611a31565b915061230683611a31565b925082821015612319576123186122c1565b5b828203905092915050565b600082825260208201905092915050565b7f416c726561647920566f74656400000000000000000000000000000000000000600082015250565b600061236b600d83612324565b915061237682612335565b602082019050919050565b6000602082019050818103600083015261239a8161235e565b9050919050565b6000819050919050565b60006123b6826123a1565b91506123c1836123a1565b9250827f7fffffffffffffffffffffffffffffffffffffffffffffffffffffffffffffff0482116000841360008413161615612400576123ff6122c1565b5b817f8000000000000000000000000000000000000000000000000000000000000000058312600084126000841316161561243d5761243c6122c1565b5b827f8000000000000000000000000000000000000000000000000000000000000000058212600084136000841216161561247a576124796122c1565b5b827f7fffffffffffffffffffffffffffffffffffffffffffffffffffffffffffffff05821260008412600084121616156124b7576124b66122c1565b5b828202905092915050565b60006124cd826123a1565b91506124d8836123a1565b9250817f7fffffffffffffffffffffffffffffffffffffffffffffffffffffffffffffff03831360008312151615612513576125126122c1565b5b817f800000000000000000000000000000000000000000000000000000000000000003831260008312161561254b5761254a6122c1565b5b828201905092915050565b6000612561826123a1565b91507f8000000000000000000000000000000000000000000000000000000000000000821415612594576125936122c1565b5b600182039050919050565b7f43616e6e6f7420566f7465000000000000000000000000000000000000000000600082015250565b60006125d5600b83612324565b91506125e08261259f565b602082019050919050565b60006020820190508181036000830152612604816125c8565b9050919050565b600061261682611ccd565b91507fffffffffffffffffffffffffffffffffffffffffffffffffffffffffffffff80821415612649576126486122c1565b5b816000039050919050565b7f57726f6e6720766f74652076616c756500000000000000000000000000000000600082015250565b600061268a601083612324565b915061269582612654565b602082019050919050565b600060208201905081810360008301526126b98161267d565b9050919050565b7f4e487b7100000000000000000000000000000000000000000000000000000000600052601260045260246000fd5b60006126fa826123a1565b9150612705836123a1565b925082612715576127146126c0565b5b600160000383147f80000000000000000000000000000000000000000000000000000000000000008314161561274e5761274d6122c1565b5b828205905092915050565b60008160030b9050919050565b600061277182612759565b915061277c83612759565b925081637fffffff0383136000831215161561279b5761279a6122c1565b5b817fffffffffffffffffffffffffffffffffffffffffffffffffffffffff800000000383126000831216156127d3576127d26122c1565b5b828201905092915050565b7f506c65617365204368616e6765204e616d65206f6620796f757220436861726960008201527f74792c2054686973206e616d6520616c72656164792065786973747300000000602082015250565b600061283a603c83612324565b9150612845826127de565b604082019050919050565b600060208201905081810360008301526128698161282d565b9050919050565b600061287b82611a12565b915063ffffffff821415612892576128916122c1565b5b600182019050919050565b7f4e487b7100000000000000000000000000000000000000000000000000000000600052604160045260246000fd5b6128d582611a99565b810181811067ffffffffffffffff821117156128f4576128f361289d565b5b80604052505050565b600061290761194c565b905061291382826128cc565b919050565b600067ffffffffffffffff8211156129335761293261289d565b5b602082029050602081019050919050565b600080fd5b600067ffffffffffffffff8211156129645761296361289d565b5b61296d82611a99565b9050602081019050919050565b600061298d61298884612949565b6128fd565b9050828152602081018484840111156129a9576129a8612944565b5b6129b48482856121e4565b509392505050565b600082601f8301126129d1576129d0611960565b5b81356129e184826020860161297a565b91505092915050565b60006129fd6129f884612918565b6128fd565b90508083825260208201905060208402830185811115612a2057612a1f61196a565b5b835b81811015612a6757803567ffffffffffffffff811115612a4557612a44611960565b5b808601612a5289826129bc565b85526020850194505050602081019050612a22565b5050509392505050565b6000612a7e3684846129ea565b905092915050565b600081905092915050565b50565b6000612aa1600083612a86565b9150612aac82612a91565b600082019050919050565b6000612ac282612a94565b9150819050919050565b7f446f6e6174696f6e204661696c65640000000000000000000000000000000000600082015250565b6000612b02600f83612324565b9150612b0d82612acc565b602082019050919050565b60006020820190508181036000830152612b3181612af5565b9050919050565b6000612b4382611a31565b9150612b4e83611a31565b9250827fffffffffffffffffffffffffffffffffffffffffffffffffffffffffffffffff03821115612b8357612b826122c1565b5b82820190509291505056fea26469706673582212204630232fe8530ae4340dbe51562b8a990a572cfea43f2833cb7b5e87c1e17f7a64736f6c63430008080033",
  "devdoc": {
    "kind": "dev",
    "methods": {},
    "version": 1
  },
  "userdoc": {
    "kind": "user",
    "methods": {},
    "version": 1
  },
  "storageLayout": {
    "storage": [
      {
        "astId": 4,
        "contract": "contracts/CharityHosting.sol:CharityHosting",
        "label": "numberOfCharitiesRegistered",
        "offset": 0,
        "slot": "0",
        "type": "t_uint32"
      },
      {
        "astId": 35,
        "contract": "contracts/CharityHosting.sol:CharityHosting",
        "label": "charityIdToDonorArray",
        "offset": 0,
        "slot": "1",
        "type": "t_mapping(t_uint32,t_array(t_struct(Donor)11_storage)dyn_storage)"
      },
      {
        "astId": 39,
        "contract": "contracts/CharityHosting.sol:CharityHosting",
        "label": "charityTokenNameToCharityId",
        "offset": 0,
        "slot": "2",
        "type": "t_mapping(t_string_memory_ptr,t_uint32)"
      },
      {
        "astId": 43,
        "contract": "contracts/CharityHosting.sol:CharityHosting",
        "label": "tokenNameExists",
        "offset": 0,
        "slot": "3",
        "type": "t_mapping(t_string_memory_ptr,t_bool)"
      },
      {
        "astId": 47,
        "contract": "contracts/CharityHosting.sol:CharityHosting",
        "label": "charities",
        "offset": 0,
        "slot": "4",
        "type": "t_array(t_struct(Charity)29_storage)dyn_storage"
      }
    ],
    "types": {
      "t_address": {
        "encoding": "inplace",
        "label": "address",
        "numberOfBytes": "20"
      },
      "t_array(t_string_storage)dyn_storage": {
        "base": "t_string_storage",
        "encoding": "dynamic_array",
        "label": "string[]",
        "numberOfBytes": "32"
      },
      "t_array(t_struct(Charity)29_storage)dyn_storage": {
        "base": "t_struct(Charity)29_storage",
        "encoding": "dynamic_array",
        "label": "struct CharityHosting.Charity[]",
        "numberOfBytes": "32"
      },
      "t_array(t_struct(Donor)11_storage)dyn_storage": {
        "base": "t_struct(Donor)11_storage",
        "encoding": "dynamic_array",
        "label": "struct CharityHosting.Donor[]",
        "numberOfBytes": "32"
      },
      "t_bool": {
        "encoding": "inplace",
        "label": "bool",
        "numberOfBytes": "1"
      },
      "t_int8": {
        "encoding": "inplace",
        "label": "int8",
        "numberOfBytes": "1"
      },
      "t_mapping(t_string_memory_ptr,t_bool)": {
        "encoding": "mapping",
        "key": "t_string_memory_ptr",
        "label": "mapping(string => bool)",
        "numberOfBytes": "32",
        "value": "t_bool"
      },
      "t_mapping(t_string_memory_ptr,t_uint32)": {
        "encoding": "mapping",
        "key": "t_string_memory_ptr",
        "label": "mapping(string => uint32)",
        "numberOfBytes": "32",
        "value": "t_uint32"
      },
      "t_mapping(t_uint32,t_array(t_struct(Donor)11_storage)dyn_storage)": {
        "encoding": "mapping",
        "key": "t_uint32",
        "label": "mapping(uint32 => struct CharityHosting.Donor[])",
        "numberOfBytes": "32",
        "value": "t_array(t_struct(Donor)11_storage)dyn_storage"
      },
      "t_string_memory_ptr": {
        "encoding": "bytes",
        "label": "string",
        "numberOfBytes": "32"
      },
      "t_string_storage": {
        "encoding": "bytes",
        "label": "string",
        "numberOfBytes": "32"
      },
      "t_struct(Charity)29_storage": {
        "encoding": "inplace",
        "label": "struct CharityHosting.Charity",
        "members": [
          {
            "astId": 13,
            "contract": "contracts/CharityHosting.sol:CharityHosting",
            "label": "charityId",
            "offset": 0,
            "slot": "0",
            "type": "t_uint32"
          },
          {
            "astId": 15,
            "contract": "contracts/CharityHosting.sol:CharityHosting",
            "label": "credibility",
            "offset": 4,
            "slot": "0",
            "type": "t_uint32"
          },
          {
            "astId": 17,
            "contract": "contracts/CharityHosting.sol:CharityHosting",
            "label": "amountRaised",
            "offset": 0,
            "slot": "1",
            "type": "t_uint256"
          },
          {
            "astId": 19,
            "contract": "contracts/CharityHosting.sol:CharityHosting",
            "label": "name",
            "offset": 0,
            "slot": "2",
            "type": "t_string_storage"
          },
          {
            "astId": 22,
            "contract": "contracts/CharityHosting.sol:CharityHosting",
            "label": "tags",
            "offset": 0,
            "slot": "3",
            "type": "t_array(t_string_storage)dyn_storage"
          },
          {
            "astId": 24,
            "contract": "contracts/CharityHosting.sol:CharityHosting",
            "label": "tokenName",
            "offset": 0,
            "slot": "4",
            "type": "t_string_storage"
          },
          {
            "astId": 26,
            "contract": "contracts/CharityHosting.sol:CharityHosting",
            "label": "agenda",
            "offset": 0,
            "slot": "5",
            "type": "t_string_storage"
          },
          {
            "astId": 28,
            "contract": "contracts/CharityHosting.sol:CharityHosting",
            "label": "ownerAddress",
            "offset": 0,
            "slot": "6",
            "type": "t_address"
          }
        ],
        "numberOfBytes": "224"
      },
      "t_struct(Donor)11_storage": {
        "encoding": "inplace",
        "label": "struct CharityHosting.Donor",
        "members": [
          {
            "astId": 6,
            "contract": "contracts/CharityHosting.sol:CharityHosting",
            "label": "vote",
            "offset": 0,
            "slot": "0",
            "type": "t_int8"
          },
          {
            "astId": 8,
            "contract": "contracts/CharityHosting.sol:CharityHosting",
            "label": "amountDonated",
            "offset": 0,
            "slot": "1",
            "type": "t_uint256"
          },
          {
            "astId": 10,
            "contract": "contracts/CharityHosting.sol:CharityHosting",
            "label": "donorAddress",
            "offset": 0,
            "slot": "2",
            "type": "t_address"
          }
        ],
        "numberOfBytes": "96"
      },
      "t_uint256": {
        "encoding": "inplace",
        "label": "uint256",
        "numberOfBytes": "32"
      },
      "t_uint32": {
        "encoding": "inplace",
        "label": "uint32",
        "numberOfBytes": "4"
      }
    }
  }
}