{
  "address": "0xe77aafCACf5e9f1Ee2Dc2D9e3e6229834fFDC1B6",
  "abi": [
    {
      "inputs": [
        {
          "internalType": "uint8",
          "name": "_value",
          "type": "uint8"
        },
        {
          "internalType": "string",
          "name": "_tokenName",
          "type": "string"
        }
      ],
      "name": "changeCredibility",
      "outputs": [],
      "stateMutability": "nonpayable",
      "type": "function"
    },
    {
      "inputs": [
        {
          "internalType": "string",
          "name": "_name",
          "type": "string"
        },
        {
          "internalType": "string",
          "name": "_tokenName",
          "type": "string"
        },
        {
          "internalType": "string",
          "name": "_agenda",
          "type": "string"
        },
        {
          "internalType": "string[]",
          "name": "_tags",
          "type": "string[]"
        },
        {
          "internalType": "address",
          "name": "_ownerAddress",
          "type": "address"
        }
      ],
      "name": "createCharity",
      "outputs": [],
      "stateMutability": "nonpayable",
      "type": "function"
    },
    {
      "inputs": [
        {
          "internalType": "string",
          "name": "_tokenName",
          "type": "string"
        }
      ],
      "name": "donate",
      "outputs": [],
      "stateMutability": "payable",
      "type": "function"
    },
    {
      "inputs": [
        {
          "internalType": "string",
          "name": "_tokenName",
          "type": "string"
        }
      ],
      "name": "getCharityByTokenName",
      "outputs": [
        {
          "components": [
            {
              "internalType": "uint8",
              "name": "credibility",
              "type": "uint8"
            },
            {
              "internalType": "uint32",
              "name": "charityId",
              "type": "uint32"
            },
            {
              "internalType": "uint256",
              "name": "amountRaised",
              "type": "uint256"
            },
            {
              "internalType": "string",
              "name": "name",
              "type": "string"
            },
            {
              "internalType": "string[]",
              "name": "tags",
              "type": "string[]"
            },
            {
              "internalType": "string",
              "name": "tokenName",
              "type": "string"
            },
            {
              "internalType": "string",
              "name": "agenda",
              "type": "string"
            },
            {
              "internalType": "address",
              "name": "ownerAddress",
              "type": "address"
            }
          ],
          "internalType": "struct CharityHosting.Charity",
          "name": "",
          "type": "tuple"
        }
      ],
      "stateMutability": "view",
      "type": "function"
    },
    {
      "inputs": [],
      "name": "getCharityList",
      "outputs": [
        {
          "components": [
            {
              "internalType": "uint8",
              "name": "credibility",
              "type": "uint8"
            },
            {
              "internalType": "uint32",
              "name": "charityId",
              "type": "uint32"
            },
            {
              "internalType": "uint256",
              "name": "amountRaised",
              "type": "uint256"
            },
            {
              "internalType": "string",
              "name": "name",
              "type": "string"
            },
            {
              "internalType": "string[]",
              "name": "tags",
              "type": "string[]"
            },
            {
              "internalType": "string",
              "name": "tokenName",
              "type": "string"
            },
            {
              "internalType": "string",
              "name": "agenda",
              "type": "string"
            },
            {
              "internalType": "address",
              "name": "ownerAddress",
              "type": "address"
            }
          ],
          "internalType": "struct CharityHosting.Charity[]",
          "name": "",
          "type": "tuple[]"
        }
      ],
      "stateMutability": "view",
      "type": "function"
    },
    {
      "inputs": [
        {
          "internalType": "string",
          "name": "_tokenName",
          "type": "string"
        }
      ],
      "name": "getDonorsArrayByTokenName",
      "outputs": [
        {
          "components": [
            {
              "internalType": "uint8",
              "name": "vote",
              "type": "uint8"
            },
            {
              "internalType": "uint256",
              "name": "amountDonated",
              "type": "uint256"
            },
            {
              "internalType": "address",
              "name": "donorAddress",
              "type": "address"
            }
          ],
          "internalType": "struct CharityHosting.Donor[]",
          "name": "",
          "type": "tuple[]"
        }
      ],
      "stateMutability": "view",
      "type": "function"
    },
    {
      "inputs": [],
      "name": "getNumberOfCharitiesRegistered",
      "outputs": [
        {
          "internalType": "uint32",
          "name": "",
          "type": "uint32"
        }
      ],
      "stateMutability": "view",
      "type": "function"
    },
    {
      "inputs": [
        {
          "internalType": "string",
          "name": "_tokenName",
          "type": "string"
        },
        {
          "internalType": "uint8",
          "name": "_index",
          "type": "uint8"
        },
        {
          "internalType": "uint8",
          "name": "_vote",
          "type": "uint8"
        }
      ],
      "name": "vouch",
      "outputs": [],
      "stateMutability": "nonpayable",
      "type": "function"
    }
  ],
  "transactionHash": "0xabaf1af15e2ca929592bf72d32ee7be6b58bb547cd8b804f9110553a6f63a36f",
  "args": [],
  "numDeployments": 1,
  "solcInputHash": "d5d210b197eae6e7c95f4e661f721389",
  "bytecode": "0x608060405260008060006101000a81548163ffffffff021916908363ffffffff16021790555034801561003157600080fd5b506120aa806100416000396000f3fe60806040526004361061007b5760003560e01c8063b5aebc801161004e578063b5aebc801461013a578063d94a049714610156578063e067f8e21461017f578063fb64b94d146101bc5761007b565b80630795bb03146100805780636ba4194a146100bd5780639ad6b0f2146100e8578063a662eb9014610111575b600080fd5b34801561008c57600080fd5b506100a760048036038101906100a291906113a6565b6101e7565b6040516100b491906116a8565b60405180910390f35b3480156100c957600080fd5b506100d261058d565b6040516100df9190611851565b60405180910390f35b3480156100f457600080fd5b5061010f600480360381019061010a91906118f5565b610925565b005b34801561011d57600080fd5b5061013860048036038101906101339190611a1d565b610c54565b005b610154600480360381019061014f91906113a6565b610ccd565b005b34801561016257600080fd5b5061017d60048036038101906101789190611a7d565b610f4f565b005b34801561018b57600080fd5b506101a660048036038101906101a191906113a6565b610fe3565b6040516101b39190611be2565b60405180910390f35b3480156101c857600080fd5b506101d161110f565b6040516101de9190611c13565b60405180910390f35b6101ef611128565b600360028484604051610203929190611c6d565b908152602001604051809103902060009054906101000a900463ffffffff1663ffffffff168154811061023957610238611c86565b5b9060005260206000209060070201604051806101000160405290816000820160009054906101000a900460ff1660ff1660ff1681526020016000820160019054906101000a900463ffffffff1663ffffffff1663ffffffff168152602001600182015481526020016002820180546102b090611ce4565b80601f01602080910402602001604051908101604052809291908181526020018280546102dc90611ce4565b80156103295780601f106102fe57610100808354040283529160200191610329565b820191906000526020600020905b81548152906001019060200180831161030c57829003601f168201915b5050505050815260200160038201805480602002602001604051908101604052809291908181526020016000905b8282101561040357838290600052602060002001805461037690611ce4565b80601f01602080910402602001604051908101604052809291908181526020018280546103a290611ce4565b80156103ef5780601f106103c4576101008083540402835291602001916103ef565b820191906000526020600020905b8154815290600101906020018083116103d257829003601f168201915b505050505081526020019060010190610357565b50505050815260200160048201805461041b90611ce4565b80601f016020809104026020016040519081016040528092919081815260200182805461044790611ce4565b80156104945780601f1061046957610100808354040283529160200191610494565b820191906000526020600020905b81548152906001019060200180831161047757829003601f168201915b505050505081526020016005820180546104ad90611ce4565b80601f01602080910402602001604051908101604052809291908181526020018280546104d990611ce4565b80156105265780601f106104fb57610100808354040283529160200191610526565b820191906000526020600020905b81548152906001019060200180831161050957829003601f168201915b505050505081526020016006820160009054906101000a900473ffffffffffffffffffffffffffffffffffffffff1673ffffffffffffffffffffffffffffffffffffffff1673ffffffffffffffffffffffffffffffffffffffff1681525050905092915050565b606060006003805480602002602001604051908101604052809291908181526020016000905b828210156109185783829060005260206000209060070201604051806101000160405290816000820160009054906101000a900460ff1660ff1660ff1681526020016000820160019054906101000a900463ffffffff1663ffffffff1663ffffffff1681526020016001820154815260200160028201805461063490611ce4565b80601f016020809104026020016040519081016040528092919081815260200182805461066090611ce4565b80156106ad5780601f10610682576101008083540402835291602001916106ad565b820191906000526020600020905b81548152906001019060200180831161069057829003601f168201915b5050505050815260200160038201805480602002602001604051908101604052809291908181526020016000905b828210156107875783829060005260206000200180546106fa90611ce4565b80601f016020809104026020016040519081016040528092919081815260200182805461072690611ce4565b80156107735780601f1061074857610100808354040283529160200191610773565b820191906000526020600020905b81548152906001019060200180831161075657829003601f168201915b5050505050815260200190600101906106db565b50505050815260200160048201805461079f90611ce4565b80601f01602080910402602001604051908101604052809291908181526020018280546107cb90611ce4565b80156108185780601f106107ed57610100808354040283529160200191610818565b820191906000526020600020905b8154815290600101906020018083116107fb57829003601f168201915b5050505050815260200160058201805461083190611ce4565b80601f016020809104026020016040519081016040528092919081815260200182805461085d90611ce4565b80156108aa5780601f1061087f576101008083540402835291602001916108aa565b820191906000526020600020905b81548152906001019060200180831161088d57829003601f168201915b505050505081526020016006820160009054906101000a900473ffffffffffffffffffffffffffffffffffffffff1673ffffffffffffffffffffffffffffffffffffffff1673ffffffffffffffffffffffffffffffffffffffff1681525050815260200190600101906105b3565b5050505090508091505090565b61092d611128565b60008081819054906101000a900463ffffffff168092919061094e90611d45565b91906101000a81548163ffffffff021916908363ffffffff160217905550816020019063ffffffff16908163ffffffff168152505089898080601f016020809104026020016040519081016040528093929190818152602001838380828437600081840152601f19601f82011690508083019250505050505050816060018190525087878080601f016020809104026020016040519081016040528093929190818152602001838380828437600081840152601f19601f820116905080830192505050505050508160a00181905250806020015160028989604051610a34929190611c6d565b908152602001604051809103902060006101000a81548163ffffffff021916908363ffffffff16021790555085858080601f016020809104026020016040519081016040528093929190818152602001838380828437600081840152601f19601f820116905080830192505050505050508160c00181905250838390610aba9190611f46565b8160800181905250818160e0019073ffffffffffffffffffffffffffffffffffffffff16908173ffffffffffffffffffffffffffffffffffffffff16815250506032816000019060ff16908160ff1681525050600381908060018154018082558091505060019003906000526020600020906007020160009091909190915060008201518160000160006101000a81548160ff021916908360ff16021790555060208201518160000160016101000a81548163ffffffff021916908363ffffffff160217905550604082015181600101556060820151816002019080519060200190610ba792919061118c565b506080820151816003019080519060200190610bc4929190611212565b5060a0820151816004019080519060200190610be192919061118c565b5060c0820151816005019080519060200190610bfe92919061118c565b5060e08201518160060160006101000a81548173ffffffffffffffffffffffffffffffffffffffff021916908373ffffffffffffffffffffffffffffffffffffffff160217905550505050505050505050505050565b82600360028484604051610c69929190611c6d565b908152602001604051809103902060009054906101000a900463ffffffff1663ffffffff1681548110610c9f57610c9e611c86565b5b906000526020600020906007020160000160006101000a81548160ff021916908360ff160217905550505050565b610cd5611272565b600060028484604051610ce9929190611c6d565b908152602001604051809103902060009054906101000a900463ffffffff16905033826040019073ffffffffffffffffffffffffffffffffffffffff16908173ffffffffffffffffffffffffffffffffffffffff168152505034826020018181525050600160008263ffffffff1663ffffffff16815260200190815260200160002082908060018154018082558091505060019003906000526020600020906003020160009091909190915060008201518160000160006101000a81548160ff021916908360ff1602179055506020820151816001015560408201518160020160006101000a81548173ffffffffffffffffffffffffffffffffffffffff021916908373ffffffffffffffffffffffffffffffffffffffff1602179055505050600060038263ffffffff1681548110610e2557610e24611c86565b5b906000526020600020906007020160060160009054906101000a900473ffffffffffffffffffffffffffffffffffffffff16905060008173ffffffffffffffffffffffffffffffffffffffff1634604051610e7f90611f8c565b60006040518083038185875af1925050503d8060008114610ebc576040519150601f19603f3d011682016040523d82523d6000602084013e610ec1565b606091505b5050905080610f05576040517f08c379a0000000000000000000000000000000000000000000000000000000008152600401610efc90611ffe565b60405180910390fd5b3460038463ffffffff1681548110610f2057610f1f611c86565b5b90600052602060002090600702016001016000828254610f40919061201e565b92505081905550505050505050565b806001600060028787604051610f66929190611c6d565b908152602001604051809103902060009054906101000a900463ffffffff1663ffffffff1663ffffffff1681526020019081526020016000208360ff1681548110610fb457610fb3611c86565b5b906000526020600020906003020160000160006101000a81548160ff021916908360ff16021790555050505050565b60606001600060028585604051610ffb929190611c6d565b908152602001604051809103902060009054906101000a900463ffffffff1663ffffffff1663ffffffff168152602001908152602001600020805480602002602001604051908101604052809291908181526020016000905b8282101561110357838290600052602060002090600302016040518060600160405290816000820160009054906101000a900460ff1660ff1660ff168152602001600182015481526020016002820160009054906101000a900473ffffffffffffffffffffffffffffffffffffffff1673ffffffffffffffffffffffffffffffffffffffff1673ffffffffffffffffffffffffffffffffffffffff168152505081526020019060010190611054565b50505050905092915050565b60008060009054906101000a900463ffffffff16905090565b604051806101000160405280600060ff168152602001600063ffffffff1681526020016000815260200160608152602001606081526020016060815260200160608152602001600073ffffffffffffffffffffffffffffffffffffffff1681525090565b82805461119890611ce4565b90600052602060002090601f0160209004810192826111ba5760008555611201565b82601f106111d357805160ff1916838001178555611201565b82800160010185558215611201579182015b828111156112005782518255916020019190600101906111e5565b5b50905061120e91906112ac565b5090565b828054828255906000526020600020908101928215611261579160200282015b8281111561126057825182908051906020019061125092919061118c565b5091602001919060010190611232565b5b50905061126e91906112c9565b5090565b6040518060600160405280600060ff16815260200160008152602001600073ffffffffffffffffffffffffffffffffffffffff1681525090565b5b808211156112c55760008160009055506001016112ad565b5090565b5b808211156112e957600081816112e091906112ed565b506001016112ca565b5090565b5080546112f990611ce4565b6000825580601f1061130b575061132a565b601f01602090049060005260206000209081019061132991906112ac565b5b50565b6000604051905090565b600080fd5b600080fd5b600080fd5b600080fd5b600080fd5b60008083601f84011261136657611365611341565b5b8235905067ffffffffffffffff81111561138357611382611346565b5b60208301915083600182028301111561139f5761139e61134b565b5b9250929050565b600080602083850312156113bd576113bc611337565b5b600083013567ffffffffffffffff8111156113db576113da61133c565b5b6113e785828601611350565b92509250509250929050565b600060ff82169050919050565b611409816113f3565b82525050565b600063ffffffff82169050919050565b6114288161140f565b82525050565b6000819050919050565b6114418161142e565b82525050565b600081519050919050565b600082825260208201905092915050565b60005b83811015611481578082015181840152602081019050611466565b83811115611490576000848401525b50505050565b6000601f19601f8301169050919050565b60006114b282611447565b6114bc8185611452565b93506114cc818560208601611463565b6114d581611496565b840191505092915050565b600081519050919050565b600082825260208201905092915050565b6000819050602082019050919050565b600061151883836114a7565b905092915050565b6000602082019050919050565b6000611538826114e0565b61154281856114eb565b935083602082028501611554856114fc565b8060005b858110156115905784840389528151611571858261150c565b945061157c83611520565b925060208a01995050600181019050611558565b50829750879550505050505092915050565b600073ffffffffffffffffffffffffffffffffffffffff82169050919050565b60006115cd826115a2565b9050919050565b6115dd816115c2565b82525050565b6000610100830160008301516115fc6000860182611400565b50602083015161160f602086018261141f565b5060408301516116226040860182611438565b506060830151848203606086015261163a82826114a7565b91505060808301518482036080860152611654828261152d565b91505060a083015184820360a086015261166e82826114a7565b91505060c083015184820360c086015261168882826114a7565b91505060e083015161169d60e08601826115d4565b508091505092915050565b600060208201905081810360008301526116c281846115e3565b905092915050565b600081519050919050565b600082825260208201905092915050565b6000819050602082019050919050565b60006101008301600083015161170f6000860182611400565b506020830151611722602086018261141f565b5060408301516117356040860182611438565b506060830151848203606086015261174d82826114a7565b91505060808301518482036080860152611767828261152d565b91505060a083015184820360a086015261178182826114a7565b91505060c083015184820360c086015261179b82826114a7565b91505060e08301516117b060e08601826115d4565b508091505092915050565b60006117c783836116f6565b905092915050565b6000602082019050919050565b60006117e7826116ca565b6117f181856116d5565b935083602082028501611803856116e6565b8060005b8581101561183f578484038952815161182085826117bb565b945061182b836117cf565b925060208a01995050600181019050611807565b50829750879550505050505092915050565b6000602082019050818103600083015261186b81846117dc565b905092915050565b60008083601f84011261188957611888611341565b5b8235905067ffffffffffffffff8111156118a6576118a5611346565b5b6020830191508360208202830111156118c2576118c161134b565b5b9250929050565b6118d2816115c2565b81146118dd57600080fd5b50565b6000813590506118ef816118c9565b92915050565b600080600080600080600080600060a08a8c03121561191757611916611337565b5b60008a013567ffffffffffffffff8111156119355761193461133c565b5b6119418c828d01611350565b995099505060208a013567ffffffffffffffff8111156119645761196361133c565b5b6119708c828d01611350565b975097505060408a013567ffffffffffffffff8111156119935761199261133c565b5b61199f8c828d01611350565b955095505060608a013567ffffffffffffffff8111156119c2576119c161133c565b5b6119ce8c828d01611873565b935093505060806119e18c828d016118e0565b9150509295985092959850929598565b6119fa816113f3565b8114611a0557600080fd5b50565b600081359050611a17816119f1565b92915050565b600080600060408486031215611a3657611a35611337565b5b6000611a4486828701611a08565b935050602084013567ffffffffffffffff811115611a6557611a6461133c565b5b611a7186828701611350565b92509250509250925092565b60008060008060608587031215611a9757611a96611337565b5b600085013567ffffffffffffffff811115611ab557611ab461133c565b5b611ac187828801611350565b94509450506020611ad487828801611a08565b9250506040611ae587828801611a08565b91505092959194509250565b600081519050919050565b600082825260208201905092915050565b6000819050602082019050919050565b606082016000820151611b336000850182611400565b506020820151611b466020850182611438565b506040820151611b5960408501826115d4565b50505050565b6000611b6b8383611b1d565b60608301905092915050565b6000602082019050919050565b6000611b8f82611af1565b611b998185611afc565b9350611ba483611b0d565b8060005b83811015611bd5578151611bbc8882611b5f565b9750611bc783611b77565b925050600181019050611ba8565b5085935050505092915050565b60006020820190508181036000830152611bfc8184611b84565b905092915050565b611c0d8161140f565b82525050565b6000602082019050611c286000830184611c04565b92915050565b600081905092915050565b82818337600083830152505050565b6000611c548385611c2e565b9350611c61838584611c39565b82840190509392505050565b6000611c7a828486611c48565b91508190509392505050565b7f4e487b7100000000000000000000000000000000000000000000000000000000600052603260045260246000fd5b7f4e487b7100000000000000000000000000000000000000000000000000000000600052602260045260246000fd5b60006002820490506001821680611cfc57607f821691505b60208210811415611d1057611d0f611cb5565b5b50919050565b7f4e487b7100000000000000000000000000000000000000000000000000000000600052601160045260246000fd5b6000611d508261140f565b915063ffffffff821415611d6757611d66611d16565b5b600182019050919050565b7f4e487b7100000000000000000000000000000000000000000000000000000000600052604160045260246000fd5b611daa82611496565b810181811067ffffffffffffffff82111715611dc957611dc8611d72565b5b80604052505050565b6000611ddc61132d565b9050611de88282611da1565b919050565b600067ffffffffffffffff821115611e0857611e07611d72565b5b602082029050602081019050919050565b600080fd5b600067ffffffffffffffff821115611e3957611e38611d72565b5b611e4282611496565b9050602081019050919050565b6000611e62611e5d84611e1e565b611dd2565b905082815260208101848484011115611e7e57611e7d611e19565b5b611e89848285611c39565b509392505050565b600082601f830112611ea657611ea5611341565b5b8135611eb6848260208601611e4f565b91505092915050565b6000611ed2611ecd84611ded565b611dd2565b90508083825260208201905060208402830185811115611ef557611ef461134b565b5b835b81811015611f3c57803567ffffffffffffffff811115611f1a57611f19611341565b5b808601611f278982611e91565b85526020850194505050602081019050611ef7565b5050509392505050565b6000611f53368484611ebf565b905092915050565b600081905092915050565b50565b6000611f76600083611f5b565b9150611f8182611f66565b600082019050919050565b6000611f9782611f69565b9150819050919050565b600082825260208201905092915050565b7f446f6e6174696f6e204661696c65640000000000000000000000000000000000600082015250565b6000611fe8600f83611fa1565b9150611ff382611fb2565b602082019050919050565b6000602082019050818103600083015261201781611fdb565b9050919050565b60006120298261142e565b91506120348361142e565b9250827fffffffffffffffffffffffffffffffffffffffffffffffffffffffffffffffff0382111561206957612068611d16565b5b82820190509291505056fea2646970667358221220989ab2df6c7d750b8625e349171389b6d6481d037c693b095955be7cb3800d2464736f6c63430008080033",
  "devdoc": {
    "kind": "dev",
    "methods": {},
    "version": 1
  },
  "userdoc": {
    "kind": "user",
    "methods": {},
    "version": 1
  },
  "storageLayout": {
    "storage": [
      {
        "astId": 4,
        "contract": "contracts/CharityHosting.sol:CharityHosting",
        "label": "numberOfCharitiesRegistered",
        "offset": 0,
        "slot": "0",
        "type": "t_uint32"
      },
      {
        "astId": 35,
        "contract": "contracts/CharityHosting.sol:CharityHosting",
        "label": "charityIdToDonorArray",
        "offset": 0,
        "slot": "1",
        "type": "t_mapping(t_uint32,t_array(t_struct(Donor)11_storage)dyn_storage)"
      },
      {
        "astId": 39,
        "contract": "contracts/CharityHosting.sol:CharityHosting",
        "label": "charityTokenNameToCharityId",
        "offset": 0,
        "slot": "2",
        "type": "t_mapping(t_string_memory_ptr,t_uint32)"
      },
      {
        "astId": 43,
        "contract": "contracts/CharityHosting.sol:CharityHosting",
        "label": "charities",
        "offset": 0,
        "slot": "3",
        "type": "t_array(t_struct(Charity)29_storage)dyn_storage"
      }
    ],
    "types": {
      "t_address": {
        "encoding": "inplace",
        "label": "address",
        "numberOfBytes": "20"
      },
      "t_array(t_string_storage)dyn_storage": {
        "base": "t_string_storage",
        "encoding": "dynamic_array",
        "label": "string[]",
        "numberOfBytes": "32"
      },
      "t_array(t_struct(Charity)29_storage)dyn_storage": {
        "base": "t_struct(Charity)29_storage",
        "encoding": "dynamic_array",
        "label": "struct CharityHosting.Charity[]",
        "numberOfBytes": "32"
      },
      "t_array(t_struct(Donor)11_storage)dyn_storage": {
        "base": "t_struct(Donor)11_storage",
        "encoding": "dynamic_array",
        "label": "struct CharityHosting.Donor[]",
        "numberOfBytes": "32"
      },
      "t_mapping(t_string_memory_ptr,t_uint32)": {
        "encoding": "mapping",
        "key": "t_string_memory_ptr",
        "label": "mapping(string => uint32)",
        "numberOfBytes": "32",
        "value": "t_uint32"
      },
      "t_mapping(t_uint32,t_array(t_struct(Donor)11_storage)dyn_storage)": {
        "encoding": "mapping",
        "key": "t_uint32",
        "label": "mapping(uint32 => struct CharityHosting.Donor[])",
        "numberOfBytes": "32",
        "value": "t_array(t_struct(Donor)11_storage)dyn_storage"
      },
      "t_string_memory_ptr": {
        "encoding": "bytes",
        "label": "string",
        "numberOfBytes": "32"
      },
      "t_string_storage": {
        "encoding": "bytes",
        "label": "string",
        "numberOfBytes": "32"
      },
      "t_struct(Charity)29_storage": {
        "encoding": "inplace",
        "label": "struct CharityHosting.Charity",
        "members": [
          {
            "astId": 13,
            "contract": "contracts/CharityHosting.sol:CharityHosting",
            "label": "credibility",
            "offset": 0,
            "slot": "0",
            "type": "t_uint8"
          },
          {
            "astId": 15,
            "contract": "contracts/CharityHosting.sol:CharityHosting",
            "label": "charityId",
            "offset": 1,
            "slot": "0",
            "type": "t_uint32"
          },
          {
            "astId": 17,
            "contract": "contracts/CharityHosting.sol:CharityHosting",
            "label": "amountRaised",
            "offset": 0,
            "slot": "1",
            "type": "t_uint256"
          },
          {
            "astId": 19,
            "contract": "contracts/CharityHosting.sol:CharityHosting",
            "label": "name",
            "offset": 0,
            "slot": "2",
            "type": "t_string_storage"
          },
          {
            "astId": 22,
            "contract": "contracts/CharityHosting.sol:CharityHosting",
            "label": "tags",
            "offset": 0,
            "slot": "3",
            "type": "t_array(t_string_storage)dyn_storage"
          },
          {
            "astId": 24,
            "contract": "contracts/CharityHosting.sol:CharityHosting",
            "label": "tokenName",
            "offset": 0,
            "slot": "4",
            "type": "t_string_storage"
          },
          {
            "astId": 26,
            "contract": "contracts/CharityHosting.sol:CharityHosting",
            "label": "agenda",
            "offset": 0,
            "slot": "5",
            "type": "t_string_storage"
          },
          {
            "astId": 28,
            "contract": "contracts/CharityHosting.sol:CharityHosting",
            "label": "ownerAddress",
            "offset": 0,
            "slot": "6",
            "type": "t_address"
          }
        ],
        "numberOfBytes": "224"
      },
      "t_struct(Donor)11_storage": {
        "encoding": "inplace",
        "label": "struct CharityHosting.Donor",
        "members": [
          {
            "astId": 6,
            "contract": "contracts/CharityHosting.sol:CharityHosting",
            "label": "vote",
            "offset": 0,
            "slot": "0",
            "type": "t_uint8"
          },
          {
            "astId": 8,
            "contract": "contracts/CharityHosting.sol:CharityHosting",
            "label": "amountDonated",
            "offset": 0,
            "slot": "1",
            "type": "t_uint256"
          },
          {
            "astId": 10,
            "contract": "contracts/CharityHosting.sol:CharityHosting",
            "label": "donorAddress",
            "offset": 0,
            "slot": "2",
            "type": "t_address"
          }
        ],
        "numberOfBytes": "96"
      },
      "t_uint256": {
        "encoding": "inplace",
        "label": "uint256",
        "numberOfBytes": "32"
      },
      "t_uint32": {
        "encoding": "inplace",
        "label": "uint32",
        "numberOfBytes": "4"
      },
      "t_uint8": {
        "encoding": "inplace",
        "label": "uint8",
        "numberOfBytes": "1"
      }
    }
  }
}